{"contracts/TokenPool.sol":{"TokenPool":{"abi":[{"inputs":[{"internalType":"address","name":"_feeManager","type":"address"},{"internalType":"address","name":"_endpoint","type":"address"},{"internalType":"address","name":"_token1","type":"address"},{"internalType":"address","name":"_token2","type":"address"}],"stateMutability":"nonpayable","type":"constructor"},{"inputs":[],"name":"InsufficientPoolBalance","type":"error"},{"inputs":[],"name":"InvalidAmount","type":"error"},{"inputs":[],"name":"InvalidDestination","type":"error"},{"inputs":[],"name":"TransferFailed","type":"error"},{"inputs":[],"name":"UnsupportedToken","type":"error"},{"inputs":[],"name":"UntrustedRemote","type":"error"},{"inputs":[],"name":"ZeroAddress","type":"error"},{"anonymous":false,"inputs":[{"indexed":false,"internalType":"address","name":"token","type":"address"},{"indexed":false,"internalType":"uint256","name":"amount","type":"uint256"}],"name":"LiquidityAdded","type":"event"},{"anonymous":false,"inputs":[{"indexed":false,"internalType":"address","name":"token","type":"address"},{"indexed":false,"internalType":"uint256","name":"amount","type":"uint256"}],"name":"LiquidityRemoved","type":"event"},{"anonymous":false,"inputs":[{"indexed":false,"internalType":"uint256","name":"newAmount","type":"uint256"}],"name":"MaxTransactionAmountUpdated","type":"event"},{"anonymous":false,"inputs":[{"indexed":false,"internalType":"uint16","name":"_srcChainId","type":"uint16"},{"indexed":false,"internalType":"bytes","name":"_srcAddress","type":"bytes"},{"indexed":false,"internalType":"uint64","name":"_nonce","type":"uint64"},{"indexed":false,"internalType":"bytes","name":"_payload","type":"bytes"},{"indexed":false,"internalType":"bytes","name":"_reason","type":"bytes"}],"name":"MessageFailed","type":"event"},{"anonymous":false,"inputs":[{"indexed":true,"internalType":"address","name":"previousOwner","type":"address"},{"indexed":true,"internalType":"address","name":"newOwner","type":"address"}],"name":"OwnershipTransferred","type":"event"},{"anonymous":false,"inputs":[{"indexed":false,"internalType":"address","name":"account","type":"address"}],"name":"Paused","type":"event"},{"anonymous":false,"inputs":[{"indexed":false,"internalType":"uint16","name":"_srcChainId","type":"uint16"},{"indexed":false,"internalType":"bytes","name":"_srcAddress","type":"bytes"},{"indexed":false,"internalType":"uint64","name":"_nonce","type":"uint64"},{"indexed":false,"internalType":"bytes32","name":"_payloadHash","type":"bytes32"}],"name":"RetryMessageSuccess","type":"event"},{"anonymous":false,"inputs":[{"indexed":true,"internalType":"bytes32","name":"role","type":"bytes32"},{"indexed":true,"internalType":"bytes32","name":"previousAdminRole","type":"bytes32"},{"indexed":true,"internalType":"bytes32","name":"newAdminRole","type":"bytes32"}],"name":"RoleAdminChanged","type":"event"},{"anonymous":false,"inputs":[{"indexed":true,"internalType":"bytes32","name":"role","type":"bytes32"},{"indexed":true,"internalType":"address","name":"account","type":"address"},{"indexed":true,"internalType":"address","name":"sender","type":"address"}],"name":"RoleGranted","type":"event"},{"anonymous":false,"inputs":[{"indexed":true,"internalType":"bytes32","name":"role","type":"bytes32"},{"indexed":true,"internalType":"address","name":"account","type":"address"},{"indexed":true,"internalType":"address","name":"sender","type":"address"}],"name":"RoleRevoked","type":"event"},{"anonymous":false,"inputs":[{"indexed":false,"internalType":"uint16","name":"_dstChainId","type":"uint16"},{"indexed":false,"internalType":"uint16","name":"_type","type":"uint16"},{"indexed":false,"internalType":"uint256","name":"_minDstGas","type":"uint256"}],"name":"SetMinDstGas","type":"event"},{"anonymous":false,"inputs":[{"indexed":false,"internalType":"address","name":"precrime","type":"address"}],"name":"SetPrecrime","type":"event"},{"anonymous":false,"inputs":[{"indexed":false,"internalType":"uint16","name":"_remoteChainId","type":"uint16"},{"indexed":false,"internalType":"bytes","name":"_path","type":"bytes"}],"name":"SetTrustedRemote","type":"event"},{"anonymous":false,"inputs":[{"indexed":false,"internalType":"uint16","name":"_remoteChainId","type":"uint16"},{"indexed":false,"internalType":"bytes","name":"_remoteAddress","type":"bytes"}],"name":"SetTrustedRemoteAddress","type":"event"},{"anonymous":false,"inputs":[{"indexed":false,"internalType":"address","name":"token","type":"address"},{"indexed":false,"internalType":"uint256","name":"amount","type":"uint256"},{"indexed":false,"internalType":"address","name":"recipient","type":"address"}],"name":"SwapCompleted","type":"event"},{"anonymous":false,"inputs":[{"indexed":false,"internalType":"address","name":"token","type":"address"},{"indexed":false,"internalType":"uint256","name":"amount","type":"uint256"},{"indexed":false,"internalType":"uint16","name":"destinationChain","type":"uint16"},{"indexed":false,"internalType":"address","name":"recipient","type":"address"},{"indexed":false,"internalType":"uint256","name":"fee","type":"uint256"}],"name":"SwapInitiated","type":"event"},{"anonymous":false,"inputs":[{"indexed":false,"internalType":"address","name":"account","type":"address"}],"name":"Unpaused","type":"event"},{"inputs":[],"name":"ADMIN_ROLE","outputs":[{"internalType":"bytes32","name":"","type":"bytes32"}],"stateMutability":"view","type":"function"},{"inputs":[],"name":"DEFAULT_ADMIN_ROLE","outputs":[{"internalType":"bytes32","name":"","type":"bytes32"}],"stateMutability":"view","type":"function"},{"inputs":[],"name":"DEFAULT_PAYLOAD_SIZE_LIMIT","outputs":[{"internalType":"uint256","name":"","type":"uint256"}],"stateMutability":"view","type":"function"},{"inputs":[],"name":"SUPPORTED_TOKEN_1","outputs":[{"internalType":"address","name":"","type":"address"}],"stateMutability":"view","type":"function"},{"inputs":[],"name":"SUPPORTED_TOKEN_2","outputs":[{"internalType":"address","name":"","type":"address"}],"stateMutability":"view","type":"function"},{"inputs":[{"internalType":"address","name":"token","type":"address"},{"internalType":"uint256","name":"amount","type":"uint256"}],"name":"addLiquidity","outputs":[],"stateMutability":"nonpayable","type":"function"},{"inputs":[{"internalType":"uint16","name":"","type":"uint16"},{"internalType":"bytes","name":"","type":"bytes"},{"internalType":"uint64","name":"","type":"uint64"}],"name":"failedMessages","outputs":[{"internalType":"bytes32","name":"","type":"bytes32"}],"stateMutability":"view","type":"function"},{"inputs":[],"name":"feeManager","outputs":[{"internalType":"address","name":"","type":"address"}],"stateMutability":"view","type":"function"},{"inputs":[{"internalType":"uint16","name":"_srcChainId","type":"uint16"},{"internalType":"bytes","name":"_srcAddress","type":"bytes"}],"name":"forceResumeReceive","outputs":[],"stateMutability":"nonpayable","type":"function"},{"inputs":[{"internalType":"uint16","name":"_version","type":"uint16"},{"internalType":"uint16","name":"_chainId","type":"uint16"},{"internalType":"address","name":"","type":"address"},{"internalType":"uint256","name":"_configType","type":"uint256"}],"name":"getConfig","outputs":[{"internalType":"bytes","name":"","type":"bytes"}],"stateMutability":"view","type":"function"},{"inputs":[{"internalType":"address","name":"token","type":"address"}],"name":"getPoolBalance","outputs":[{"internalType":"uint256","name":"","type":"uint256"}],"stateMutability":"view","type":"function"},{"inputs":[{"internalType":"bytes32","name":"role","type":"bytes32"}],"name":"getRoleAdmin","outputs":[{"internalType":"bytes32","name":"","type":"bytes32"}],"stateMutability":"view","type":"function"},{"inputs":[{"internalType":"uint16","name":"_remoteChainId","type":"uint16"}],"name":"getTrustedRemoteAddress","outputs":[{"internalType":"bytes","name":"","type":"bytes"}],"stateMutability":"view","type":"function"},{"inputs":[{"internalType":"bytes32","name":"role","type":"bytes32"},{"internalType":"address","name":"account","type":"address"}],"name":"grantRole","outputs":[],"stateMutability":"nonpayable","type":"function"},{"inputs":[{"internalType":"bytes32","name":"role","type":"bytes32"},{"internalType":"address","name":"account","type":"address"}],"name":"hasRole","outputs":[{"internalType":"bool","name":"","type":"bool"}],"stateMutability":"view","type":"function"},{"inputs":[{"internalType":"address","name":"token","type":"address"},{"internalType":"uint256","name":"amount","type":"uint256"},{"internalType":"uint16","name":"destinationChain","type":"uint16"},{"internalType":"address","name":"recipient","type":"address"}],"name":"initiateSwap","outputs":[],"stateMutability":"payable","type":"function"},{"inputs":[{"internalType":"uint16","name":"_srcChainId","type":"uint16"},{"internalType":"bytes","name":"_srcAddress","type":"bytes"}],"name":"isTrustedRemote","outputs":[{"internalType":"bool","name":"","type":"bool"}],"stateMutability":"view","type":"function"},{"inputs":[],"name":"lzEndpoint","outputs":[{"internalType":"contract ILayerZeroEndpoint","name":"","type":"address"}],"stateMutability":"view","type":"function"},{"inputs":[{"internalType":"uint16","name":"_srcChainId","type":"uint16"},{"internalType":"bytes","name":"_srcAddress","type":"bytes"},{"internalType":"uint64","name":"_nonce","type":"uint64"},{"internalType":"bytes","name":"_payload","type":"bytes"}],"name":"lzReceive","outputs":[],"stateMutability":"nonpayable","type":"function"},{"inputs":[],"name":"maxTransactionAmount","outputs":[{"internalType":"uint256","name":"","type":"uint256"}],"stateMutability":"view","type":"function"},{"inputs":[{"internalType":"uint16","name":"","type":"uint16"},{"internalType":"uint16","name":"","type":"uint16"}],"name":"minDstGasLookup","outputs":[{"internalType":"uint256","name":"","type":"uint256"}],"stateMutability":"view","type":"function"},{"inputs":[{"internalType":"uint16","name":"_srcChainId","type":"uint16"},{"internalType":"bytes","name":"_srcAddress","type":"bytes"},{"internalType":"uint64","name":"_nonce","type":"uint64"},{"internalType":"bytes","name":"_payload","type":"bytes"}],"name":"nonblockingLzReceive","outputs":[],"stateMutability":"nonpayable","type":"function"},{"inputs":[],"name":"owner","outputs":[{"internalType":"address","name":"","type":"address"}],"stateMutability":"view","type":"function"},{"inputs":[],"name":"paused","outputs":[{"internalType":"bool","name":"","type":"bool"}],"stateMutability":"view","type":"function"},{"inputs":[{"internalType":"uint16","name":"","type":"uint16"}],"name":"payloadSizeLimitLookup","outputs":[{"internalType":"uint256","name":"","type":"uint256"}],"stateMutability":"view","type":"function"},{"inputs":[],"name":"precrime","outputs":[{"internalType":"address","name":"","type":"address"}],"stateMutability":"view","type":"function"},{"inputs":[{"internalType":"address","name":"token","type":"address"},{"internalType":"uint256","name":"amount","type":"uint256"},{"internalType":"address","name":"recipient","type":"address"}],"name":"processIncomingSwap","outputs":[],"stateMutability":"nonpayable","type":"function"},{"inputs":[{"internalType":"address","name":"token","type":"address"},{"internalType":"uint256","name":"amount","type":"uint256"}],"name":"removeLiquidity","outputs":[],"stateMutability":"nonpayable","type":"function"},{"inputs":[],"name":"renounceOwnership","outputs":[],"stateMutability":"nonpayable","type":"function"},{"inputs":[{"internalType":"bytes32","name":"role","type":"bytes32"},{"internalType":"address","name":"account","type":"address"}],"name":"renounceRole","outputs":[],"stateMutability":"nonpayable","type":"function"},{"inputs":[{"internalType":"uint16","name":"_srcChainId","type":"uint16"},{"internalType":"bytes","name":"_srcAddress","type":"bytes"},{"internalType":"uint64","name":"_nonce","type":"uint64"},{"internalType":"bytes","name":"_payload","type":"bytes"}],"name":"retryMessage","outputs":[],"stateMutability":"payable","type":"function"},{"inputs":[{"internalType":"bytes32","name":"role","type":"bytes32"},{"internalType":"address","name":"account","type":"address"}],"name":"revokeRole","outputs":[],"stateMutability":"nonpayable","type":"function"},{"inputs":[{"internalType":"uint16","name":"_version","type":"uint16"},{"internalType":"uint16","name":"_chainId","type":"uint16"},{"internalType":"uint256","name":"_configType","type":"uint256"},{"internalType":"bytes","name":"_config","type":"bytes"}],"name":"setConfig","outputs":[],"stateMutability":"nonpayable","type":"function"},{"inputs":[{"internalType":"uint256","name":"newAmount","type":"uint256"}],"name":"setMaxTransactionAmount","outputs":[],"stateMutability":"nonpayable","type":"function"},{"inputs":[{"internalType":"uint16","name":"_dstChainId","type":"uint16"},{"internalType":"uint16","name":"_packetType","type":"uint16"},{"internalType":"uint256","name":"_minGas","type":"uint256"}],"name":"setMinDstGas","outputs":[],"stateMutability":"nonpayable","type":"function"},{"inputs":[{"internalType":"uint16","name":"_dstChainId","type":"uint16"},{"internalType":"uint256","name":"_size","type":"uint256"}],"name":"setPayloadSizeLimit","outputs":[],"stateMutability":"nonpayable","type":"function"},{"inputs":[{"internalType":"address","name":"_precrime","type":"address"}],"name":"setPrecrime","outputs":[],"stateMutability":"nonpayable","type":"function"},{"inputs":[{"internalType":"uint16","name":"_version","type":"uint16"}],"name":"setReceiveVersion","outputs":[],"stateMutability":"nonpayable","type":"function"},{"inputs":[{"internalType":"uint16","name":"_version","type":"uint16"}],"name":"setSendVersion","outputs":[],"stateMutability":"nonpayable","type":"function"},{"inputs":[{"internalType":"uint16","name":"_remoteChainId","type":"uint16"},{"internalType":"address","name":"_remoteAddress","type":"address"},{"internalType":"bool","name":"_isTrusted","type":"bool"}],"name":"setTrustedRemote","outputs":[],"stateMutability":"nonpayable","type":"function"},{"inputs":[{"internalType":"uint16","name":"_remoteChainId","type":"uint16"},{"internalType":"bytes","name":"_path","type":"bytes"}],"name":"setTrustedRemote","outputs":[],"stateMutability":"nonpayable","type":"function"},{"inputs":[{"internalType":"uint16","name":"_remoteChainId","type":"uint16"},{"internalType":"bytes","name":"_remoteAddress","type":"bytes"}],"name":"setTrustedRemoteAddress","outputs":[],"stateMutability":"nonpayable","type":"function"},{"inputs":[{"internalType":"bytes4","name":"interfaceId","type":"bytes4"}],"name":"supportsInterface","outputs":[{"internalType":"bool","name":"","type":"bool"}],"stateMutability":"view","type":"function"},{"inputs":[],"name":"togglePause","outputs":[],"stateMutability":"nonpayable","type":"function"},{"inputs":[{"internalType":"address","name":"newOwner","type":"address"}],"name":"transferOwnership","outputs":[],"stateMutability":"nonpayable","type":"function"},{"inputs":[{"internalType":"uint16","name":"","type":"uint16"},{"internalType":"address","name":"","type":"address"}],"name":"trustedRemoteAddresses","outputs":[{"internalType":"bool","name":"","type":"bool"}],"stateMutability":"view","type":"function"},{"inputs":[{"internalType":"uint16","name":"","type":"uint16"}],"name":"trustedRemoteLookup","outputs":[{"internalType":"bytes","name":"","type":"bytes"}],"stateMutability":"view","type":"function"}],"evm":{"bytecode":{"linkReferences":{},"object":"61010060405264e8d4a510006009553480156200001b57600080fd5b5060405162003ab538038062003ab58339810160408190526200003e916200020d565b82806200004b33620000fb565b6001600160a01b039081166080526007805460ff1916905560016008558516159050806200008057506001600160a01b038216155b156200009f5760405163d92e233d60e01b815260040160405180910390fd5b6001600160a01b0380851660e05282811660a052811660c052620000c56000336200014b565b620000f17fa49807205ce4d355092ef5a8a18f56e8913cf4a201fbe287825b095693c21775336200014b565b505050506200026a565b600080546001600160a01b038381166001600160a01b0319831681178455604051919092169283917f8be0079c531659141344cd1fd0a4f28419497f9722a3daafe3b4186f6b6457e09190a35050565b60008281526006602090815260408083206001600160a01b038516845290915290205460ff16620001ec5760008281526006602090815260408083206001600160a01b03851684529091529020805460ff19166001179055620001ab3390565b6001600160a01b0316816001600160a01b0316837f2f8788117e7eff1d82e926ec794901d17c78024a50270940304540a733656f0d60405160405180910390a45b5050565b80516001600160a01b03811681146200020857600080fd5b919050565b600080600080608085870312156200022457600080fd5b6200022f85620001f0565b93506200023f60208601620001f0565b92506200024f60408601620001f0565b91506200025f60608601620001f0565b905092959194509250565b60805160a05160c05160e0516137bd620002f8600039600081816107fe015281816114f8015261163c0152600081816103f30152818161218401526121b70152600081816105f701526121490152600081816107490152818161094701528181610bcd01528181610c7501528181610f3f01528181611a4001528181611e5c015261266e01526137bd6000f3fe6080604052600436106102875760003560e01c80638cfd8f5c1161015a578063c4ae3168116100c1578063d547741f1161007a578063d547741f14610869578063df2a5b3b14610889578063df967f44146108a9578063eb8d72b7146108e4578063f2fde38b14610904578063f5ecbdbc1461092457600080fd5b8063c4ae3168146107a1578063c8c8ebe4146107b6578063cbed8b9c146107cc578063d0fb0203146107ec578063d1deba1f14610820578063d28682ea1461083357600080fd5b8063a201ccf611610113578063a201ccf6146106e2578063a217fddf14610702578063a6c3d16514610717578063b353aaa714610737578063baf3292d1461076b578063c44618341461078b57600080fd5b80638cfd8f5c146106195780638da5cb5b1461065157806391d148541461066f578063950c8a741461068f5780639f38369a146106af578063a1d6fdee146106cf57600080fd5b80633d8b38f6116101fe5780635c975abb116101b75780635c975abb1461054957806366ad5c8a14610561578063715018a6146105815780637533d7881461059657806375b238fc146105c357806380fbda69146105e557600080fd5b80633d8b38f61461044d5780633f1f4fa41461046d57806342d65a8d1461049a5780634366b383146104ba57806356688700146104da5780635b8c41e6146104fa57600080fd5b8063155bf60911610250578063155bf609146103435780631e293c1014610363578063248a9ca3146103835780632f2ff15d146103c1578063343727d5146103e157806336568abe1461042d57600080fd5b80621d35671461028c57806301ffc9a7146102ae57806307e0db17146102e35780630df374831461030357806310ddb13714610323575b600080fd5b34801561029857600080fd5b506102ac6102a7366004612bda565b610944565b005b3480156102ba57600080fd5b506102ce6102c9366004612c6d565b610b75565b60405190151581526020015b60405180910390f35b3480156102ef57600080fd5b506102ac6102fe366004612c97565b610bac565b34801561030f57600080fd5b506102ac61031e366004612cb2565b610c35565b34801561032f57600080fd5b506102ac61033e366004612c97565b610c54565b34801561034f57600080fd5b506102ac61035e366004612cff565b610cac565b34801561036f57600080fd5b506102ac61037e366004612d48565b610d2f565b34801561038f57600080fd5b506103b361039e366004612d48565b60009081526006602052604090206001015490565b6040519081526020016102da565b3480156103cd57600080fd5b506102ac6103dc366004612d61565b610dac565b3480156103ed57600080fd5b506104157f000000000000000000000000000000000000000000000000000000000000000081565b6040516001600160a01b0390911681526020016102da565b34801561043957600080fd5b506102ac610448366004612d61565b610dd6565b34801561045957600080fd5b506102ce610468366004612d91565b610e54565b34801561047957600080fd5b506103b3610488366004612c97565b60036020526000908152604090205481565b3480156104a657600080fd5b506102ac6104b5366004612d91565b610f20565b3480156104c657600080fd5b506102ac6104d5366004612de3565b610fa6565b3480156104e657600080fd5b506102ac6104f5366004612e1a565b611001565b34801561050657600080fd5b506103b3610515366004612ea5565b6005602090815260009384526040808520845180860184018051928152908401958401959095209452929052825290205481565b34801561055557600080fd5b5060075460ff166102ce565b34801561056d57600080fd5b506102ac61057c366004612bda565b611185565b34801561058d57600080fd5b506102ac611261565b3480156105a257600080fd5b506105b66105b1366004612c97565b611275565b6040516102da9190612f95565b3480156105cf57600080fd5b506103b360008051602061376883398151915281565b3480156105f157600080fd5b506104157f000000000000000000000000000000000000000000000000000000000000000081565b34801561062557600080fd5b506103b3610634366004612fa8565b600260209081526000928352604080842090915290825290205481565b34801561065d57600080fd5b506000546001600160a01b0316610415565b34801561067b57600080fd5b506102ce61068a366004612d61565b61130f565b34801561069b57600080fd5b50600454610415906001600160a01b031681565b3480156106bb57600080fd5b506105b66106ca366004612c97565b61133a565b6102ac6106dd366004612fdb565b611450565b3480156106ee57600080fd5b506102ac6106fd366004612e1a565b61175f565b34801561070e57600080fd5b506103b3600081565b34801561072357600080fd5b506102ac610732366004612d91565b611907565b34801561074357600080fd5b506104157f000000000000000000000000000000000000000000000000000000000000000081565b34801561077757600080fd5b506102ac61078636600461302c565b611990565b34801561079757600080fd5b506103b361271081565b3480156107ad57600080fd5b506102ac6119ec565b3480156107c257600080fd5b506103b360095481565b3480156107d857600080fd5b506102ac6107e7366004613049565b611a21565b3480156107f857600080fd5b506104157f000000000000000000000000000000000000000000000000000000000000000081565b6102ac61082e366004612bda565b611ab6565b34801561083f57600080fd5b506103b361084e36600461302c565b6001600160a01b03166000908152600a602052604090205490565b34801561087557600080fd5b506102ac610884366004612d61565b611ccc565b34801561089557600080fd5b506102ac6108a43660046130b7565b611cf1565b3480156108b557600080fd5b506102ce6108c43660046130f3565b600b60209081526000928352604080842090915290825290205460ff1681565b3480156108f057600080fd5b506102ac6108ff366004612d91565b611d5b565b34801561091057600080fd5b506102ac61091f36600461302c565b611db5565b34801561093057600080fd5b506105b661093f36600461311f565b611e2b565b337f00000000000000000000000000000000000000000000000000000000000000006001600160a01b0316146109c15760405162461bcd60e51b815260206004820152601e60248201527f4c7a4170703a20696e76616c696420656e64706f696e742063616c6c6572000060448201526064015b60405180910390fd5b61ffff8616600090815260016020526040812080546109df9061316c565b80601f0160208091040260200160405190810160405280929190818152602001828054610a0b9061316c565b8015610a585780601f10610a2d57610100808354040283529160200191610a58565b820191906000526020600020905b815481529060010190602001808311610a3b57829003601f168201915b50505050509050805186869050148015610a73575060008151115b8015610a9b575080516020820120604051610a9190889088906131a6565b6040518091039020145b610af65760405162461bcd60e51b815260206004820152602660248201527f4c7a4170703a20696e76616c696420736f757263652073656e64696e6720636f6044820152651b9d1c9858dd60d21b60648201526084016109b8565b610b6c8787878080601f01602080910402602001604051908101604052809392919081815260200183838082843760009201919091525050604080516020601f8a018190048102820181019092528881528a935091508890889081908401838280828437600092019190915250611edc92505050565b50505050505050565b60006001600160e01b03198216637965db0b60e01b1480610ba657506301ffc9a760e01b6001600160e01b03198316145b92915050565b610bb4611f55565b6040516307e0db1760e01b815261ffff821660048201527f00000000000000000000000000000000000000000000000000000000000000006001600160a01b0316906307e0db17906024015b600060405180830381600087803b158015610c1a57600080fd5b505af1158015610c2e573d6000803e3d6000fd5b5050505050565b610c3d611f55565b61ffff909116600090815260036020526040902055565b610c5c611f55565b6040516310ddb13760e01b815261ffff821660048201527f00000000000000000000000000000000000000000000000000000000000000006001600160a01b0316906310ddb13790602401610c00565b600080516020613768833981519152610cc481611faf565b610ccc611fb9565b6001600160a01b038316610cf35760405163d92e233d60e01b815260040160405180910390fd5b5061ffff9092166000908152600b602090815260408083206001600160a01b03909416835292905220805491151560ff19909216919091179055565b600080516020613768833981519152610d4781611faf565b610d4f611fb9565b81600003610d705760405163162908e360e11b815260040160405180910390fd5b60098290556040518281527f7c1cb3702d8e1fa6d24b12dd90670ab69c6d66d58233103d37da8b07d6b850ac9060200160405180910390a15050565b600082815260066020526040902060010154610dc781611faf565b610dd18383611fff565b505050565b6001600160a01b0381163314610e465760405162461bcd60e51b815260206004820152602f60248201527f416363657373436f6e74726f6c3a2063616e206f6e6c792072656e6f756e636560448201526e103937b632b9903337b91039b2b63360891b60648201526084016109b8565b610e508282612085565b5050565b61ffff831660009081526001602052604081208054829190610e759061316c565b80601f0160208091040260200160405190810160405280929190818152602001828054610ea19061316c565b8015610eee5780601f10610ec357610100808354040283529160200191610eee565b820191906000526020600020905b815481529060010190602001808311610ed157829003601f168201915b505050505090508383604051610f059291906131a6565b60405180910390208180519060200120149150509392505050565b610f28611f55565b6040516342d65a8d60e01b81526001600160a01b037f000000000000000000000000000000000000000000000000000000000000000016906342d65a8d90610f78908690869086906004016131df565b600060405180830381600087803b158015610f9257600080fd5b505af1158015610b6c573d6000803e3d6000fd5b60405162461bcd60e51b815260206004820152602a60248201527f446972656374207377617073206e6f7420737570706f72746564202d20757365604482015269204c617965725a65726f60b01b60648201526084016109b8565b60008051602061376883398151915261101981611faf565b611021611fb9565b6110296120ec565b61103283612145565b61104f5760405163350b944160e11b815260040160405180910390fd5b816000036110705760405163162908e360e11b815260040160405180910390fd5b6001600160a01b0383166000908152600a602052604081208054849290611098908490613213565b90915550506040516323b872dd60e01b8152336004820152306024820152604481018390526000906001600160a01b038516906323b872dd906064016020604051808303816000875af11580156110f3573d6000803e3d6000fd5b505050506040513d601f19601f820116820180604052508101906111179190613226565b905080611137576040516312171d8360e31b815260040160405180910390fd5b604080516001600160a01b0386168152602081018590527fc17cea59c2955cb181b03393209566960365771dbba9dc3d510180e7cb31208891015b60405180910390a150610dd16001600855565b3330146111e35760405162461bcd60e51b815260206004820152602660248201527f4e6f6e626c6f636b696e674c7a4170703a2063616c6c6572206d7573742062656044820152650204c7a4170760d41b60648201526084016109b8565b6112598686868080601f01602080910402602001604051908101604052809392919081815260200183838082843760009201919091525050604080516020601f8901819004810282018101909252878152899350915087908790819084018382808284376000920191909152506121f092505050565b505050505050565b611269611f55565b61127360006123e8565b565b6001602052600090815260409020805461128e9061316c565b80601f01602080910402602001604051908101604052809291908181526020018280546112ba9061316c565b80156113075780601f106112dc57610100808354040283529160200191611307565b820191906000526020600020905b8154815290600101906020018083116112ea57829003601f168201915b505050505081565b60009182526006602090815260408084206001600160a01b0393909316845291905290205460ff1690565b61ffff811660009081526001602052604081208054606092919061135d9061316c565b80601f01602080910402602001604051908101604052809291908181526020018280546113899061316c565b80156113d65780601f106113ab576101008083540402835291602001916113d6565b820191906000526020600020905b8154815290600101906020018083116113b957829003601f168201915b50505050509050805160000361142e5760405162461bcd60e51b815260206004820152601d60248201527f4c7a4170703a206e6f20747275737465642070617468207265636f726400000060448201526064016109b8565b6114496000601483516114419190613243565b839190612438565b9392505050565b611458611fb9565b6114606120ec565b61146984612145565b6114865760405163350b944160e11b815260040160405180910390fd5b821580611494575060095483115b156114b25760405163162908e360e11b815260040160405180910390fd5b6001600160a01b0381166114d95760405163ac6b05f560e01b815260040160405180910390fd5b604051634594558f60e11b8152336004820152602481018490526000907f00000000000000000000000000000000000000000000000000000000000000006001600160a01b031690638b28ab1e90604401602060405180830381865afa158015611547573d6000803e3d6000fd5b505050506040513d601f19601f8201168201806040525081019061156b9190613256565b905060006115798286613243565b6040516323b872dd60e01b8152336004820152306024820152604481018790529091506000906001600160a01b038816906323b872dd906064016020604051808303816000875af11580156115d2573d6000803e3d6000fd5b505050506040513d601f19601f820116820180604052508101906115f69190613226565b905080611616576040516312171d8360e31b815260040160405180910390fd5b6040516328634b5d60e01b81526001600160a01b038881166004830152602482018590527f000000000000000000000000000000000000000000000000000000000000000016906328634b5d90604401600060405180830381600087803b15801561168057600080fd5b505af1158015611694573d6000803e3d6000fd5b5050604080516001600160a01b03808c166020830152918101869052908716606082015260009250608001905060405160208183030381529060405290506116f086823360006040518060200160405280600081525034612545565b604080516001600160a01b038a81168252602082018a905261ffff891682840152871660608201526080810186905290517f56596a9e2b07e147dd86a640a3e1c385e1ff34352e5133d50165ea5c510100be9181900360a00190a1505050506117596001600855565b50505050565b60008051602061376883398151915261177781611faf565b61177f611fb9565b6117876120ec565b61179083612145565b6117ad5760405163350b944160e11b815260040160405180910390fd5b816000036117ce5760405163162908e360e11b815260040160405180910390fd5b6001600160a01b0383166000908152600a60205260409020548211156118075760405163bc6072f160e01b815260040160405180910390fd5b6001600160a01b0383166000908152600a60205260408120805484929061182f908490613243565b909155505060405163a9059cbb60e01b8152336004820152602481018390526000906001600160a01b0385169063a9059cbb906044016020604051808303816000875af1158015611884573d6000803e3d6000fd5b505050506040513d601f19601f820116820180604052508101906118a89190613226565b9050806118c8576040516312171d8360e31b815260040160405180910390fd5b604080516001600160a01b0386168152602081018590527fc2c3f06e49b9f15e7b4af9055e183b0d73362e033ad82a07dec9bf98401717199101611172565b61190f611f55565b8181306040516020016119249392919061326f565b60408051601f1981840301815291815261ffff851660009081526001602052209061194f90826132db565b507f8c0400cfe2d1199b1a725c78960bcc2a344d869b80590d0f2bd005db15a572ce838383604051611983939291906131df565b60405180910390a1505050565b611998611f55565b600480546001600160a01b0319166001600160a01b0383169081179091556040519081527f5db758e995a17ec1ad84bdef7e8c3293a0bd6179bcce400dff5d4c3d87db726b9060200160405180910390a150565b600080516020613768833981519152611a0481611faf565b60075460ff16611a1957611a166126ea565b50565b611a16612744565b611a29611f55565b6040516332fb62e760e21b81526001600160a01b037f0000000000000000000000000000000000000000000000000000000000000000169063cbed8b9c90611a7d908890889088908890889060040161339a565b600060405180830381600087803b158015611a9757600080fd5b505af1158015611aab573d6000803e3d6000fd5b505050505050505050565b61ffff86166000908152600560205260408082209051611ad990889088906131a6565b90815260408051602092819003830190206001600160401b03871660009081529252902054905080611b595760405162461bcd60e51b815260206004820152602360248201527f4e6f6e626c6f636b696e674c7a4170703a206e6f2073746f726564206d65737360448201526261676560e81b60648201526084016109b8565b808383604051611b6a9291906131a6565b604051809103902014611bc95760405162461bcd60e51b815260206004820152602160248201527f4e6f6e626c6f636b696e674c7a4170703a20696e76616c6964207061796c6f616044820152601960fa1b60648201526084016109b8565b61ffff87166000908152600560205260408082209051611bec90899089906131a6565b90815260408051602092819003830181206001600160401b038916600090815290845282902093909355601f88018290048202830182019052868252611c84918991899089908190840183828082843760009201919091525050604080516020601f8a018190048102820181019092528881528a9350915088908890819084018382808284376000920191909152506121f092505050565b7fc264d91f3adc5588250e1551f547752ca0cfa8f6b530d243b9f9f4cab10ea8e58787878785604051611cbb9594939291906133d3565b60405180910390a150505050505050565b600082815260066020526040902060010154611ce781611faf565b610dd18383612085565b611cf9611f55565b61ffff83811660008181526002602090815260408083209487168084529482529182902085905581519283528201929092529081018290527f9d5c7c0b934da8fefa9c7760c98383778a12dfbfc0c3b3106518f43fb9508ac090606001611983565b611d63611f55565b61ffff83166000908152600160205260409020611d8182848361340e565b507ffa41487ad5d6728f0b19276fa1eddc16558578f5109fc39d2dc33c3230470dab838383604051611983939291906131df565b611dbd611f55565b6001600160a01b038116611e225760405162461bcd60e51b815260206004820152602660248201527f4f776e61626c653a206e6577206f776e657220697320746865207a65726f206160448201526564647265737360d01b60648201526084016109b8565b611a16816123e8565b604051633d7b2f6f60e21b815261ffff808616600483015284166024820152306044820152606481018290526060907f00000000000000000000000000000000000000000000000000000000000000006001600160a01b03169063f5ecbdbc90608401600060405180830381865afa158015611eab573d6000803e3d6000fd5b505050506040513d6000823e601f3d908101601f19168201604052611ed391908101906134cd565b95945050505050565b600080611f3f5a60966366ad5c8a60e01b89898989604051602401611f04949392919061353a565b60408051601f198184030181529190526020810180516001600160e01b03166001600160e01b0319909316929092179091523092919061277d565b9150915081611259576112598686868685612807565b6000546001600160a01b031633146112735760405162461bcd60e51b815260206004820181905260248201527f4f776e61626c653a2063616c6c6572206973206e6f7420746865206f776e657260448201526064016109b8565b611a1681336128a4565b60075460ff16156112735760405162461bcd60e51b815260206004820152601060248201526f14185d5cd8589b194e881c185d5cd95960821b60448201526064016109b8565b612009828261130f565b610e505760008281526006602090815260408083206001600160a01b03851684529091529020805460ff191660011790556120413390565b6001600160a01b0316816001600160a01b0316837f2f8788117e7eff1d82e926ec794901d17c78024a50270940304540a733656f0d60405160405180910390a45050565b61208f828261130f565b15610e505760008281526006602090815260408083206001600160a01b0385168085529252808320805460ff1916905551339285917ff6391f5c32d9c69d2a47ea670b442974b53935d1edc7fd64eb21e047a839171b9190a45050565b60026008540361213e5760405162461bcd60e51b815260206004820152601f60248201527f5265656e7472616e637947756172643a207265656e7472616e742063616c6c0060448201526064016109b8565b6002600855565b60007f00000000000000000000000000000000000000000000000000000000000000006001600160a01b0316826001600160a01b03161480610ba657507f00000000000000000000000000000000000000000000000000000000000000006001600160a01b031615801590610ba657507f00000000000000000000000000000000000000000000000000000000000000006001600160a01b0316826001600160a01b03161492915050565b6000838060200190518101906122069190613578565b61ffff86166000908152600b602090815260408083206001600160a01b038516845290915290205490915060ff1661225157604051631553015360e31b815260040160405180910390fd5b60008060008480602001905181019061226a9190613595565b92509250925061227983612145565b6122965760405163350b944160e11b815260040160405180910390fd5b6001600160a01b0383166000908152600a60205260409020548211156122cf5760405163bc6072f160e01b815260040160405180910390fd5b6001600160a01b0383166000908152600a6020526040812080548492906122f7908490613243565b909155505060405163a9059cbb60e01b81526001600160a01b038281166004830152602482018490526000919085169063a9059cbb906044016020604051808303816000875af115801561234f573d6000803e3d6000fd5b505050506040513d601f19601f820116820180604052508101906123739190613226565b905080612393576040516312171d8360e31b815260040160405180910390fd5b604080516001600160a01b0386811682526020820186905284168183015290517f6bbefcd7325035947bad7982ddff18911e737a882f33a62c7144011b861597d59181900360600190a1505050505050505050565b600080546001600160a01b038381166001600160a01b0319831681178455604051919092169283917f8be0079c531659141344cd1fd0a4f28419497f9722a3daafe3b4186f6b6457e09190a35050565b60608161244681601f613213565b10156124855760405162461bcd60e51b815260206004820152600e60248201526d736c6963655f6f766572666c6f7760901b60448201526064016109b8565b61248f8284613213565b845110156124d35760405162461bcd60e51b8152602060048201526011602482015270736c6963655f6f75744f66426f756e647360781b60448201526064016109b8565b6060821580156124f2576040519150600082526020820160405261253c565b6040519150601f8416801560200281840101858101878315602002848b0101015b8183101561252b578051835260209283019201612513565b5050858452601f01601f1916604052505b50949350505050565b61ffff8616600090815260016020526040812080546125639061316c565b80601f016020809104026020016040519081016040528092919081815260200182805461258f9061316c565b80156125dc5780601f106125b1576101008083540402835291602001916125dc565b820191906000526020600020905b8154815290600101906020018083116125bf57829003601f168201915b50505050509050805160000361264d5760405162461bcd60e51b815260206004820152603060248201527f4c7a4170703a2064657374696e6174696f6e20636861696e206973206e6f742060448201526f61207472757374656420736f7572636560801b60648201526084016109b8565b6126588787516128fd565b60405162c5803160e81b81526001600160a01b037f0000000000000000000000000000000000000000000000000000000000000000169063c58031009084906126af908b9086908c908c908c908c906004016135cd565b6000604051808303818588803b1580156126c857600080fd5b505af11580156126dc573d6000803e3d6000fd5b505050505050505050505050565b6126f2611fb9565b6007805460ff191660011790557f62e78cea01bee320cd4e420270b5ea74000d11b0c9f74754ebdbfc544b05a2586127273390565b6040516001600160a01b03909116815260200160405180910390a1565b61274c61296e565b6007805460ff191690557f5db9ee0a495bf2e6ff9c91a7834c1ba4fdd244a5e8aa4e537bd38aeae4b073aa33612727565b6000606060008060008661ffff166001600160401b038111156127a2576127a2612e38565b6040519080825280601f01601f1916602001820160405280156127cc576020820181803683370190505b50905060008087516020890160008d8df191503d9250868311156127ee578692505b828152826000602083013e909890975095505050505050565b8180519060200120600560008761ffff1661ffff168152602001908152602001600020856040516128389190613634565b9081526040805191829003602090810183206001600160401b0388166000908152915220919091557fe183f33de2837795525b4792ca4cd60535bd77c53b7e7030060bfcf5734d6b0c906128959087908790879087908790613650565b60405180910390a15050505050565b6128ae828261130f565b610e50576128bb816129b7565b6128c68360206129c9565b6040516020016128d79291906136ae565b60408051601f198184030181529082905262461bcd60e51b82526109b891600401612f95565b61ffff82166000908152600360205260408120549081900361291e57506127105b80821115610dd15760405162461bcd60e51b815260206004820181905260248201527f4c7a4170703a207061796c6f61642073697a6520697320746f6f206c6172676560448201526064016109b8565b60075460ff166112735760405162461bcd60e51b815260206004820152601460248201527314185d5cd8589b194e881b9bdd081c185d5cd95960621b60448201526064016109b8565b6060610ba66001600160a01b03831660145b606060006129d8836002613723565b6129e3906002613213565b6001600160401b038111156129fa576129fa612e38565b6040519080825280601f01601f191660200182016040528015612a24576020820181803683370190505b509050600360fc1b81600081518110612a3f57612a3f61373a565b60200101906001600160f81b031916908160001a905350600f60fb1b81600181518110612a6e57612a6e61373a565b60200101906001600160f81b031916908160001a9053506000612a92846002613723565b612a9d906001613213565b90505b6001811115612b15576f181899199a1a9b1b9c1cb0b131b232b360811b85600f1660108110612ad157612ad161373a565b1a60f81b828281518110612ae757612ae761373a565b60200101906001600160f81b031916908160001a90535060049490941c93612b0e81613750565b9050612aa0565b5083156114495760405162461bcd60e51b815260206004820181905260248201527f537472696e67733a20686578206c656e67746820696e73756666696369656e7460448201526064016109b8565b803561ffff81168114612b7657600080fd5b919050565b60008083601f840112612b8d57600080fd5b5081356001600160401b03811115612ba457600080fd5b602083019150836020828501011115612bbc57600080fd5b9250929050565b80356001600160401b0381168114612b7657600080fd5b60008060008060008060808789031215612bf357600080fd5b612bfc87612b64565b955060208701356001600160401b0380821115612c1857600080fd5b612c248a838b01612b7b565b9097509550859150612c3860408a01612bc3565b94506060890135915080821115612c4e57600080fd5b50612c5b89828a01612b7b565b979a9699509497509295939492505050565b600060208284031215612c7f57600080fd5b81356001600160e01b03198116811461144957600080fd5b600060208284031215612ca957600080fd5b61144982612b64565b60008060408385031215612cc557600080fd5b612cce83612b64565b946020939093013593505050565b6001600160a01b0381168114611a1657600080fd5b8015158114611a1657600080fd5b600080600060608486031215612d1457600080fd5b612d1d84612b64565b92506020840135612d2d81612cdc565b91506040840135612d3d81612cf1565b809150509250925092565b600060208284031215612d5a57600080fd5b5035919050565b60008060408385031215612d7457600080fd5b823591506020830135612d8681612cdc565b809150509250929050565b600080600060408486031215612da657600080fd5b612daf84612b64565b925060208401356001600160401b03811115612dca57600080fd5b612dd686828701612b7b565b9497909650939450505050565b600080600060608486031215612df857600080fd5b8335612e0381612cdc565b9250602084013591506040840135612d3d81612cdc565b60008060408385031215612e2d57600080fd5b8235612cce81612cdc565b634e487b7160e01b600052604160045260246000fd5b604051601f8201601f191681016001600160401b0381118282101715612e7657612e76612e38565b604052919050565b60006001600160401b03821115612e9757612e97612e38565b50601f01601f191660200190565b600080600060608486031215612eba57600080fd5b612ec384612b64565b925060208401356001600160401b03811115612ede57600080fd5b8401601f81018613612eef57600080fd5b8035612f02612efd82612e7e565b612e4e565b818152876020838501011115612f1757600080fd5b81602084016020830137600060208383010152809450505050612f3c60408501612bc3565b90509250925092565b60005b83811015612f60578181015183820152602001612f48565b50506000910152565b60008151808452612f81816020860160208601612f45565b601f01601f19169290920160200192915050565b6020815260006114496020830184612f69565b60008060408385031215612fbb57600080fd5b612fc483612b64565b9150612fd260208401612b64565b90509250929050565b60008060008060808587031215612ff157600080fd5b8435612ffc81612cdc565b93506020850135925061301160408601612b64565b9150606085013561302181612cdc565b939692955090935050565b60006020828403121561303e57600080fd5b813561144981612cdc565b60008060008060006080868803121561306157600080fd5b61306a86612b64565b945061307860208701612b64565b93506040860135925060608601356001600160401b0381111561309a57600080fd5b6130a688828901612b7b565b969995985093965092949392505050565b6000806000606084860312156130cc57600080fd5b6130d584612b64565b92506130e360208501612b64565b9150604084013590509250925092565b6000806040838503121561310657600080fd5b61310f83612b64565b91506020830135612d8681612cdc565b6000806000806080858703121561313557600080fd5b61313e85612b64565b935061314c60208601612b64565b9250604085013561315c81612cdc565b9396929550929360600135925050565b600181811c9082168061318057607f821691505b6020821081036131a057634e487b7160e01b600052602260045260246000fd5b50919050565b8183823760009101908152919050565b81835281816020850137506000828201602090810191909152601f909101601f19169091010190565b61ffff84168152604060208201526000611ed36040830184866131b6565b634e487b7160e01b600052601160045260246000fd5b80820180821115610ba657610ba66131fd565b60006020828403121561323857600080fd5b815161144981612cf1565b81810381811115610ba657610ba66131fd565b60006020828403121561326857600080fd5b5051919050565b8284823760609190911b6bffffffffffffffffffffffff19169101908152601401919050565b601f821115610dd157600081815260208120601f850160051c810160208610156132bc5750805b601f850160051c820191505b81811015611259578281556001016132c8565b81516001600160401b038111156132f4576132f4612e38565b61330881613302845461316c565b84613295565b602080601f83116001811461333d57600084156133255750858301515b600019600386901b1c1916600185901b178555611259565b600085815260208120601f198616915b8281101561336c5788860151825594840194600190910190840161334d565b508582101561338a5787850151600019600388901b60f8161c191681555b5050505050600190811b01905550565b600061ffff8088168352808716602084015250846040830152608060608301526133c86080830184866131b6565b979650505050505050565b61ffff861681526080602082015260006133f16080830186886131b6565b6001600160401b0394909416604083015250606001529392505050565b6001600160401b0383111561342557613425612e38565b61343983613433835461316c565b83613295565b6000601f84116001811461346d57600085156134555750838201355b600019600387901b1c1916600186901b178355610c2e565b600083815260209020601f19861690835b8281101561349e578685013582556020948501946001909201910161347e565b50868210156134bb5760001960f88860031b161c19848701351681555b505060018560011b0183555050505050565b6000602082840312156134df57600080fd5b81516001600160401b038111156134f557600080fd5b8201601f8101841361350657600080fd5b8051613514612efd82612e7e565b81815285602083850101111561352957600080fd5b611ed3826020830160208601612f45565b61ffff851681526080602082015260006135576080830186612f69565b6001600160401b038516604084015282810360608401526133c88185612f69565b60006020828403121561358a57600080fd5b815161144981612cdc565b6000806000606084860312156135aa57600080fd5b83516135b581612cdc565b602085015160408601519194509250612d3d81612cdc565b61ffff8716815260c0602082015260006135ea60c0830188612f69565b82810360408401526135fc8188612f69565b6001600160a01b0387811660608601528616608085015283810360a085015290506136278185612f69565b9998505050505050505050565b60008251613646818460208701612f45565b9190910192915050565b61ffff8616815260a06020820152600061366d60a0830187612f69565b6001600160401b0386166040840152828103606084015261368e8186612f69565b905082810360808401526136a28185612f69565b98975050505050505050565b7f416363657373436f6e74726f6c3a206163636f756e74200000000000000000008152600083516136e6816017850160208801612f45565b7001034b99036b4b9b9b4b733903937b6329607d1b6017918401918201528351613717816028840160208801612f45565b01602801949350505050565b8082028115828204841417610ba657610ba66131fd565b634e487b7160e01b600052603260045260246000fd5b60008161375f5761375f6131fd565b50600019019056fea49807205ce4d355092ef5a8a18f56e8913cf4a201fbe287825b095693c21775a26469706673582212204e28d043cb287e6759d39e59612b5153414707dbc09d40eb40597a69da9b6a6e64736f6c63430008130033","opcodes":"PUSH2 0x100 PUSH1 0x40 MSTORE PUSH5 0xE8D4A51000 PUSH1 0x9 SSTORE CALLVALUE DUP1 ISZERO PUSH3 0x1B JUMPI PUSH1 0x0 DUP1 REVERT JUMPDEST POP PUSH1 0x40 MLOAD PUSH3 0x3AB5 CODESIZE SUB DUP1 PUSH3 0x3AB5 DUP4 CODECOPY DUP2 ADD PUSH1 0x40 DUP2 SWAP1 MSTORE PUSH3 0x3E SWAP2 PUSH3 0x20D JUMP JUMPDEST DUP3 DUP1 PUSH3 0x4B CALLER PUSH3 0xFB JUMP JUMPDEST PUSH1 0x1 PUSH1 0x1 PUSH1 0xA0 SHL SUB SWAP1 DUP2 AND PUSH1 0x80 MSTORE PUSH1 0x7 DUP1 SLOAD PUSH1 0xFF NOT AND SWAP1 SSTORE PUSH1 0x1 PUSH1 0x8 SSTORE DUP6 AND ISZERO SWAP1 POP DUP1 PUSH3 0x80 JUMPI POP PUSH1 0x1 PUSH1 0x1 PUSH1 0xA0 SHL SUB DUP3 AND ISZERO JUMPDEST ISZERO PUSH3 0x9F JUMPI PUSH1 0x40 MLOAD PUSH4 0xD92E233D PUSH1 0xE0 SHL DUP2 MSTORE PUSH1 0x4 ADD PUSH1 0x40 MLOAD DUP1 SWAP2 SUB SWAP1 REVERT JUMPDEST PUSH1 0x1 PUSH1 0x1 PUSH1 0xA0 SHL SUB DUP1 DUP6 AND PUSH1 0xE0 MSTORE DUP3 DUP2 AND PUSH1 0xA0 MSTORE DUP2 AND PUSH1 0xC0 MSTORE PUSH3 0xC5 PUSH1 0x0 CALLER PUSH3 0x14B JUMP JUMPDEST PUSH3 0xF1 PUSH32 0xA49807205CE4D355092EF5A8A18F56E8913CF4A201FBE287825B095693C21775 CALLER PUSH3 0x14B JUMP JUMPDEST POP POP POP POP PUSH3 0x26A JUMP JUMPDEST PUSH1 0x0 DUP1 SLOAD PUSH1 0x1 PUSH1 0x1 PUSH1 0xA0 SHL SUB DUP4 DUP2 AND PUSH1 0x1 PUSH1 0x1 PUSH1 0xA0 SHL SUB NOT DUP4 AND DUP2 OR DUP5 SSTORE PUSH1 0x40 MLOAD SWAP2 SWAP1 SWAP3 AND SWAP3 DUP4 SWAP2 PUSH32 0x8BE0079C531659141344CD1FD0A4F28419497F9722A3DAAFE3B4186F6B6457E0 SWAP2 SWAP1 LOG3 POP POP JUMP JUMPDEST PUSH1 0x0 DUP3 DUP2 MSTORE PUSH1 0x6 PUSH1 0x20 SWAP1 DUP2 MSTORE PUSH1 0x40 DUP1 DUP4 KECCAK256 PUSH1 0x1 PUSH1 0x1 PUSH1 0xA0 SHL SUB DUP6 AND DUP5 MSTORE SWAP1 SWAP2 MSTORE SWAP1 KECCAK256 SLOAD PUSH1 0xFF AND PUSH3 0x1EC JUMPI PUSH1 0x0 DUP3 DUP2 MSTORE PUSH1 0x6 PUSH1 0x20 SWAP1 DUP2 MSTORE PUSH1 0x40 DUP1 DUP4 KECCAK256 PUSH1 0x1 PUSH1 0x1 PUSH1 0xA0 SHL SUB DUP6 AND DUP5 MSTORE SWAP1 SWAP2 MSTORE SWAP1 KECCAK256 DUP1 SLOAD PUSH1 0xFF NOT AND PUSH1 0x1 OR SWAP1 SSTORE PUSH3 0x1AB CALLER SWAP1 JUMP JUMPDEST PUSH1 0x1 PUSH1 0x1 PUSH1 0xA0 SHL SUB AND DUP2 PUSH1 0x1 PUSH1 0x1 PUSH1 0xA0 SHL SUB AND DUP4 PUSH32 0x2F8788117E7EFF1D82E926EC794901D17C78024A50270940304540A733656F0D PUSH1 0x40 MLOAD PUSH1 0x40 MLOAD DUP1 SWAP2 SUB SWAP1 LOG4 JUMPDEST POP POP JUMP JUMPDEST DUP1 MLOAD PUSH1 0x1 PUSH1 0x1 PUSH1 0xA0 SHL SUB DUP2 AND DUP2 EQ PUSH3 0x208 JUMPI PUSH1 0x0 DUP1 REVERT JUMPDEST SWAP2 SWAP1 POP JUMP JUMPDEST PUSH1 0x0 DUP1 PUSH1 0x0 DUP1 PUSH1 0x80 DUP6 DUP8 SUB SLT ISZERO PUSH3 0x224 JUMPI PUSH1 0x0 DUP1 REVERT JUMPDEST PUSH3 0x22F DUP6 PUSH3 0x1F0 JUMP JUMPDEST SWAP4 POP PUSH3 0x23F PUSH1 0x20 DUP7 ADD PUSH3 0x1F0 JUMP JUMPDEST SWAP3 POP PUSH3 0x24F PUSH1 0x40 DUP7 ADD PUSH3 0x1F0 JUMP JUMPDEST SWAP2 POP PUSH3 0x25F PUSH1 0x60 DUP7 ADD PUSH3 0x1F0 JUMP JUMPDEST SWAP1 POP SWAP3 SWAP6 SWAP2 SWAP5 POP SWAP3 POP JUMP JUMPDEST PUSH1 0x80 MLOAD PUSH1 0xA0 MLOAD PUSH1 0xC0 MLOAD PUSH1 0xE0 MLOAD PUSH2 0x37BD PUSH3 0x2F8 PUSH1 0x0 CODECOPY PUSH1 0x0 DUP2 DUP2 PUSH2 0x7FE ADD MSTORE DUP2 DUP2 PUSH2 0x14F8 ADD MSTORE PUSH2 0x163C ADD MSTORE PUSH1 0x0 DUP2 DUP2 PUSH2 0x3F3 ADD MSTORE DUP2 DUP2 PUSH2 0x2184 ADD MSTORE PUSH2 0x21B7 ADD MSTORE PUSH1 0x0 DUP2 DUP2 PUSH2 0x5F7 ADD MSTORE PUSH2 0x2149 ADD MSTORE PUSH1 0x0 DUP2 DUP2 PUSH2 0x749 ADD MSTORE DUP2 DUP2 PUSH2 0x947 ADD MSTORE DUP2 DUP2 PUSH2 0xBCD ADD MSTORE DUP2 DUP2 PUSH2 0xC75 ADD MSTORE DUP2 DUP2 PUSH2 0xF3F ADD MSTORE DUP2 DUP2 PUSH2 0x1A40 ADD MSTORE DUP2 DUP2 PUSH2 0x1E5C ADD MSTORE PUSH2 0x266E ADD MSTORE PUSH2 0x37BD PUSH1 0x0 RETURN INVALID PUSH1 0x80 PUSH1 0x40 MSTORE PUSH1 0x4 CALLDATASIZE LT PUSH2 0x287 JUMPI PUSH1 0x0 CALLDATALOAD PUSH1 0xE0 SHR DUP1 PUSH4 0x8CFD8F5C GT PUSH2 0x15A JUMPI DUP1 PUSH4 0xC4AE3168 GT PUSH2 0xC1 JUMPI DUP1 PUSH4 0xD547741F GT PUSH2 0x7A JUMPI DUP1 PUSH4 0xD547741F EQ PUSH2 0x869 JUMPI DUP1 PUSH4 0xDF2A5B3B EQ PUSH2 0x889 JUMPI DUP1 PUSH4 0xDF967F44 EQ PUSH2 0x8A9 JUMPI DUP1 PUSH4 0xEB8D72B7 EQ PUSH2 0x8E4 JUMPI DUP1 PUSH4 0xF2FDE38B EQ PUSH2 0x904 JUMPI DUP1 PUSH4 0xF5ECBDBC EQ PUSH2 0x924 JUMPI PUSH1 0x0 DUP1 REVERT JUMPDEST DUP1 PUSH4 0xC4AE3168 EQ PUSH2 0x7A1 JUMPI DUP1 PUSH4 0xC8C8EBE4 EQ PUSH2 0x7B6 JUMPI DUP1 PUSH4 0xCBED8B9C EQ PUSH2 0x7CC JUMPI DUP1 PUSH4 0xD0FB0203 EQ PUSH2 0x7EC JUMPI DUP1 PUSH4 0xD1DEBA1F EQ PUSH2 0x820 JUMPI DUP1 PUSH4 0xD28682EA EQ PUSH2 0x833 JUMPI PUSH1 0x0 DUP1 REVERT JUMPDEST DUP1 PUSH4 0xA201CCF6 GT PUSH2 0x113 JUMPI DUP1 PUSH4 0xA201CCF6 EQ PUSH2 0x6E2 JUMPI DUP1 PUSH4 0xA217FDDF EQ PUSH2 0x702 JUMPI DUP1 PUSH4 0xA6C3D165 EQ PUSH2 0x717 JUMPI DUP1 PUSH4 0xB353AAA7 EQ PUSH2 0x737 JUMPI DUP1 PUSH4 0xBAF3292D EQ PUSH2 0x76B JUMPI DUP1 PUSH4 0xC4461834 EQ PUSH2 0x78B JUMPI PUSH1 0x0 DUP1 REVERT JUMPDEST DUP1 PUSH4 0x8CFD8F5C EQ PUSH2 0x619 JUMPI DUP1 PUSH4 0x8DA5CB5B EQ PUSH2 0x651 JUMPI DUP1 PUSH4 0x91D14854 EQ PUSH2 0x66F JUMPI DUP1 PUSH4 0x950C8A74 EQ PUSH2 0x68F JUMPI DUP1 PUSH4 0x9F38369A EQ PUSH2 0x6AF JUMPI DUP1 PUSH4 0xA1D6FDEE EQ PUSH2 0x6CF JUMPI PUSH1 0x0 DUP1 REVERT JUMPDEST DUP1 PUSH4 0x3D8B38F6 GT PUSH2 0x1FE JUMPI DUP1 PUSH4 0x5C975ABB GT PUSH2 0x1B7 JUMPI DUP1 PUSH4 0x5C975ABB EQ PUSH2 0x549 JUMPI DUP1 PUSH4 0x66AD5C8A EQ PUSH2 0x561 JUMPI DUP1 PUSH4 0x715018A6 EQ PUSH2 0x581 JUMPI DUP1 PUSH4 0x7533D788 EQ PUSH2 0x596 JUMPI DUP1 PUSH4 0x75B238FC EQ PUSH2 0x5C3 JUMPI DUP1 PUSH4 0x80FBDA69 EQ PUSH2 0x5E5 JUMPI PUSH1 0x0 DUP1 REVERT JUMPDEST DUP1 PUSH4 0x3D8B38F6 EQ PUSH2 0x44D JUMPI DUP1 PUSH4 0x3F1F4FA4 EQ PUSH2 0x46D JUMPI DUP1 PUSH4 0x42D65A8D EQ PUSH2 0x49A JUMPI DUP1 PUSH4 0x4366B383 EQ PUSH2 0x4BA JUMPI DUP1 PUSH4 0x56688700 EQ PUSH2 0x4DA JUMPI DUP1 PUSH4 0x5B8C41E6 EQ PUSH2 0x4FA JUMPI PUSH1 0x0 DUP1 REVERT JUMPDEST DUP1 PUSH4 0x155BF609 GT PUSH2 0x250 JUMPI DUP1 PUSH4 0x155BF609 EQ PUSH2 0x343 JUMPI DUP1 PUSH4 0x1E293C10 EQ PUSH2 0x363 JUMPI DUP1 PUSH4 0x248A9CA3 EQ PUSH2 0x383 JUMPI DUP1 PUSH4 0x2F2FF15D EQ PUSH2 0x3C1 JUMPI DUP1 PUSH4 0x343727D5 EQ PUSH2 0x3E1 JUMPI DUP1 PUSH4 0x36568ABE EQ PUSH2 0x42D JUMPI PUSH1 0x0 DUP1 REVERT JUMPDEST DUP1 PUSH3 0x1D3567 EQ PUSH2 0x28C JUMPI DUP1 PUSH4 0x1FFC9A7 EQ PUSH2 0x2AE JUMPI DUP1 PUSH4 0x7E0DB17 EQ PUSH2 0x2E3 JUMPI DUP1 PUSH4 0xDF37483 EQ PUSH2 0x303 JUMPI DUP1 PUSH4 0x10DDB137 EQ PUSH2 0x323 JUMPI JUMPDEST PUSH1 0x0 DUP1 REVERT JUMPDEST CALLVALUE DUP1 ISZERO PUSH2 0x298 JUMPI PUSH1 0x0 DUP1 REVERT JUMPDEST POP PUSH2 0x2AC PUSH2 0x2A7 CALLDATASIZE PUSH1 0x4 PUSH2 0x2BDA JUMP JUMPDEST PUSH2 0x944 JUMP JUMPDEST STOP JUMPDEST CALLVALUE DUP1 ISZERO PUSH2 0x2BA JUMPI PUSH1 0x0 DUP1 REVERT JUMPDEST POP PUSH2 0x2CE PUSH2 0x2C9 CALLDATASIZE PUSH1 0x4 PUSH2 0x2C6D JUMP JUMPDEST PUSH2 0xB75 JUMP JUMPDEST PUSH1 0x40 MLOAD SWAP1 ISZERO ISZERO DUP2 MSTORE PUSH1 0x20 ADD JUMPDEST PUSH1 0x40 MLOAD DUP1 SWAP2 SUB SWAP1 RETURN JUMPDEST CALLVALUE DUP1 ISZERO PUSH2 0x2EF JUMPI PUSH1 0x0 DUP1 REVERT JUMPDEST POP PUSH2 0x2AC PUSH2 0x2FE CALLDATASIZE PUSH1 0x4 PUSH2 0x2C97 JUMP JUMPDEST PUSH2 0xBAC JUMP JUMPDEST CALLVALUE DUP1 ISZERO PUSH2 0x30F JUMPI PUSH1 0x0 DUP1 REVERT JUMPDEST POP PUSH2 0x2AC PUSH2 0x31E CALLDATASIZE PUSH1 0x4 PUSH2 0x2CB2 JUMP JUMPDEST PUSH2 0xC35 JUMP JUMPDEST CALLVALUE DUP1 ISZERO PUSH2 0x32F JUMPI PUSH1 0x0 DUP1 REVERT JUMPDEST POP PUSH2 0x2AC PUSH2 0x33E CALLDATASIZE PUSH1 0x4 PUSH2 0x2C97 JUMP JUMPDEST PUSH2 0xC54 JUMP JUMPDEST CALLVALUE DUP1 ISZERO PUSH2 0x34F JUMPI PUSH1 0x0 DUP1 REVERT JUMPDEST POP PUSH2 0x2AC PUSH2 0x35E CALLDATASIZE PUSH1 0x4 PUSH2 0x2CFF JUMP JUMPDEST PUSH2 0xCAC JUMP JUMPDEST CALLVALUE DUP1 ISZERO PUSH2 0x36F JUMPI PUSH1 0x0 DUP1 REVERT JUMPDEST POP PUSH2 0x2AC PUSH2 0x37E CALLDATASIZE PUSH1 0x4 PUSH2 0x2D48 JUMP JUMPDEST PUSH2 0xD2F JUMP JUMPDEST CALLVALUE DUP1 ISZERO PUSH2 0x38F JUMPI PUSH1 0x0 DUP1 REVERT JUMPDEST POP PUSH2 0x3B3 PUSH2 0x39E CALLDATASIZE PUSH1 0x4 PUSH2 0x2D48 JUMP JUMPDEST PUSH1 0x0 SWAP1 DUP2 MSTORE PUSH1 0x6 PUSH1 0x20 MSTORE PUSH1 0x40 SWAP1 KECCAK256 PUSH1 0x1 ADD SLOAD SWAP1 JUMP JUMPDEST PUSH1 0x40 MLOAD SWAP1 DUP2 MSTORE PUSH1 0x20 ADD PUSH2 0x2DA JUMP JUMPDEST CALLVALUE DUP1 ISZERO PUSH2 0x3CD JUMPI PUSH1 0x0 DUP1 REVERT JUMPDEST POP PUSH2 0x2AC PUSH2 0x3DC CALLDATASIZE PUSH1 0x4 PUSH2 0x2D61 JUMP JUMPDEST PUSH2 0xDAC JUMP JUMPDEST CALLVALUE DUP1 ISZERO PUSH2 0x3ED JUMPI PUSH1 0x0 DUP1 REVERT JUMPDEST POP PUSH2 0x415 PUSH32 0x0 DUP2 JUMP JUMPDEST PUSH1 0x40 MLOAD PUSH1 0x1 PUSH1 0x1 PUSH1 0xA0 SHL SUB SWAP1 SWAP2 AND DUP2 MSTORE PUSH1 0x20 ADD PUSH2 0x2DA JUMP JUMPDEST CALLVALUE DUP1 ISZERO PUSH2 0x439 JUMPI PUSH1 0x0 DUP1 REVERT JUMPDEST POP PUSH2 0x2AC PUSH2 0x448 CALLDATASIZE PUSH1 0x4 PUSH2 0x2D61 JUMP JUMPDEST PUSH2 0xDD6 JUMP JUMPDEST CALLVALUE DUP1 ISZERO PUSH2 0x459 JUMPI PUSH1 0x0 DUP1 REVERT JUMPDEST POP PUSH2 0x2CE PUSH2 0x468 CALLDATASIZE PUSH1 0x4 PUSH2 0x2D91 JUMP JUMPDEST PUSH2 0xE54 JUMP JUMPDEST CALLVALUE DUP1 ISZERO PUSH2 0x479 JUMPI PUSH1 0x0 DUP1 REVERT JUMPDEST POP PUSH2 0x3B3 PUSH2 0x488 CALLDATASIZE PUSH1 0x4 PUSH2 0x2C97 JUMP JUMPDEST PUSH1 0x3 PUSH1 0x20 MSTORE PUSH1 0x0 SWAP1 DUP2 MSTORE PUSH1 0x40 SWAP1 KECCAK256 SLOAD DUP2 JUMP JUMPDEST CALLVALUE DUP1 ISZERO PUSH2 0x4A6 JUMPI PUSH1 0x0 DUP1 REVERT JUMPDEST POP PUSH2 0x2AC PUSH2 0x4B5 CALLDATASIZE PUSH1 0x4 PUSH2 0x2D91 JUMP JUMPDEST PUSH2 0xF20 JUMP JUMPDEST CALLVALUE DUP1 ISZERO PUSH2 0x4C6 JUMPI PUSH1 0x0 DUP1 REVERT JUMPDEST POP PUSH2 0x2AC PUSH2 0x4D5 CALLDATASIZE PUSH1 0x4 PUSH2 0x2DE3 JUMP JUMPDEST PUSH2 0xFA6 JUMP JUMPDEST CALLVALUE DUP1 ISZERO PUSH2 0x4E6 JUMPI PUSH1 0x0 DUP1 REVERT JUMPDEST POP PUSH2 0x2AC PUSH2 0x4F5 CALLDATASIZE PUSH1 0x4 PUSH2 0x2E1A JUMP JUMPDEST PUSH2 0x1001 JUMP JUMPDEST CALLVALUE DUP1 ISZERO PUSH2 0x506 JUMPI PUSH1 0x0 DUP1 REVERT JUMPDEST POP PUSH2 0x3B3 PUSH2 0x515 CALLDATASIZE PUSH1 0x4 PUSH2 0x2EA5 JUMP JUMPDEST PUSH1 0x5 PUSH1 0x20 SWAP1 DUP2 MSTORE PUSH1 0x0 SWAP4 DUP5 MSTORE PUSH1 0x40 DUP1 DUP6 KECCAK256 DUP5 MLOAD DUP1 DUP7 ADD DUP5 ADD DUP1 MLOAD SWAP3 DUP2 MSTORE SWAP1 DUP5 ADD SWAP6 DUP5 ADD SWAP6 SWAP1 SWAP6 KECCAK256 SWAP5 MSTORE SWAP3 SWAP1 MSTORE DUP3 MSTORE SWAP1 KECCAK256 SLOAD DUP2 JUMP JUMPDEST CALLVALUE DUP1 ISZERO PUSH2 0x555 JUMPI PUSH1 0x0 DUP1 REVERT JUMPDEST POP PUSH1 0x7 SLOAD PUSH1 0xFF AND PUSH2 0x2CE JUMP JUMPDEST CALLVALUE DUP1 ISZERO PUSH2 0x56D JUMPI PUSH1 0x0 DUP1 REVERT JUMPDEST POP PUSH2 0x2AC PUSH2 0x57C CALLDATASIZE PUSH1 0x4 PUSH2 0x2BDA JUMP JUMPDEST PUSH2 0x1185 JUMP JUMPDEST CALLVALUE DUP1 ISZERO PUSH2 0x58D JUMPI PUSH1 0x0 DUP1 REVERT JUMPDEST POP PUSH2 0x2AC PUSH2 0x1261 JUMP JUMPDEST CALLVALUE DUP1 ISZERO PUSH2 0x5A2 JUMPI PUSH1 0x0 DUP1 REVERT JUMPDEST POP PUSH2 0x5B6 PUSH2 0x5B1 CALLDATASIZE PUSH1 0x4 PUSH2 0x2C97 JUMP JUMPDEST PUSH2 0x1275 JUMP JUMPDEST PUSH1 0x40 MLOAD PUSH2 0x2DA SWAP2 SWAP1 PUSH2 0x2F95 JUMP JUMPDEST CALLVALUE DUP1 ISZERO PUSH2 0x5CF JUMPI PUSH1 0x0 DUP1 REVERT JUMPDEST POP PUSH2 0x3B3 PUSH1 0x0 DUP1 MLOAD PUSH1 0x20 PUSH2 0x3768 DUP4 CODECOPY DUP2 MLOAD SWAP2 MSTORE DUP2 JUMP JUMPDEST CALLVALUE DUP1 ISZERO PUSH2 0x5F1 JUMPI PUSH1 0x0 DUP1 REVERT JUMPDEST POP PUSH2 0x415 PUSH32 0x0 DUP2 JUMP JUMPDEST CALLVALUE DUP1 ISZERO PUSH2 0x625 JUMPI PUSH1 0x0 DUP1 REVERT JUMPDEST POP PUSH2 0x3B3 PUSH2 0x634 CALLDATASIZE PUSH1 0x4 PUSH2 0x2FA8 JUMP JUMPDEST PUSH1 0x2 PUSH1 0x20 SWAP1 DUP2 MSTORE PUSH1 0x0 SWAP3 DUP4 MSTORE PUSH1 0x40 DUP1 DUP5 KECCAK256 SWAP1 SWAP2 MSTORE SWAP1 DUP3 MSTORE SWAP1 KECCAK256 SLOAD DUP2 JUMP JUMPDEST CALLVALUE DUP1 ISZERO PUSH2 0x65D JUMPI PUSH1 0x0 DUP1 REVERT JUMPDEST POP PUSH1 0x0 SLOAD PUSH1 0x1 PUSH1 0x1 PUSH1 0xA0 SHL SUB AND PUSH2 0x415 JUMP JUMPDEST CALLVALUE DUP1 ISZERO PUSH2 0x67B JUMPI PUSH1 0x0 DUP1 REVERT JUMPDEST POP PUSH2 0x2CE PUSH2 0x68A CALLDATASIZE PUSH1 0x4 PUSH2 0x2D61 JUMP JUMPDEST PUSH2 0x130F JUMP JUMPDEST CALLVALUE DUP1 ISZERO PUSH2 0x69B JUMPI PUSH1 0x0 DUP1 REVERT JUMPDEST POP PUSH1 0x4 SLOAD PUSH2 0x415 SWAP1 PUSH1 0x1 PUSH1 0x1 PUSH1 0xA0 SHL SUB AND DUP2 JUMP JUMPDEST CALLVALUE DUP1 ISZERO PUSH2 0x6BB JUMPI PUSH1 0x0 DUP1 REVERT JUMPDEST POP PUSH2 0x5B6 PUSH2 0x6CA CALLDATASIZE PUSH1 0x4 PUSH2 0x2C97 JUMP JUMPDEST PUSH2 0x133A JUMP JUMPDEST PUSH2 0x2AC PUSH2 0x6DD CALLDATASIZE PUSH1 0x4 PUSH2 0x2FDB JUMP JUMPDEST PUSH2 0x1450 JUMP JUMPDEST CALLVALUE DUP1 ISZERO PUSH2 0x6EE JUMPI PUSH1 0x0 DUP1 REVERT JUMPDEST POP PUSH2 0x2AC PUSH2 0x6FD CALLDATASIZE PUSH1 0x4 PUSH2 0x2E1A JUMP JUMPDEST PUSH2 0x175F JUMP JUMPDEST CALLVALUE DUP1 ISZERO PUSH2 0x70E JUMPI PUSH1 0x0 DUP1 REVERT JUMPDEST POP PUSH2 0x3B3 PUSH1 0x0 DUP2 JUMP JUMPDEST CALLVALUE DUP1 ISZERO PUSH2 0x723 JUMPI PUSH1 0x0 DUP1 REVERT JUMPDEST POP PUSH2 0x2AC PUSH2 0x732 CALLDATASIZE PUSH1 0x4 PUSH2 0x2D91 JUMP JUMPDEST PUSH2 0x1907 JUMP JUMPDEST CALLVALUE DUP1 ISZERO PUSH2 0x743 JUMPI PUSH1 0x0 DUP1 REVERT JUMPDEST POP PUSH2 0x415 PUSH32 0x0 DUP2 JUMP JUMPDEST CALLVALUE DUP1 ISZERO PUSH2 0x777 JUMPI PUSH1 0x0 DUP1 REVERT JUMPDEST POP PUSH2 0x2AC PUSH2 0x786 CALLDATASIZE PUSH1 0x4 PUSH2 0x302C JUMP JUMPDEST PUSH2 0x1990 JUMP JUMPDEST CALLVALUE DUP1 ISZERO PUSH2 0x797 JUMPI PUSH1 0x0 DUP1 REVERT JUMPDEST POP PUSH2 0x3B3 PUSH2 0x2710 DUP2 JUMP JUMPDEST CALLVALUE DUP1 ISZERO PUSH2 0x7AD JUMPI PUSH1 0x0 DUP1 REVERT JUMPDEST POP PUSH2 0x2AC PUSH2 0x19EC JUMP JUMPDEST CALLVALUE DUP1 ISZERO PUSH2 0x7C2 JUMPI PUSH1 0x0 DUP1 REVERT JUMPDEST POP PUSH2 0x3B3 PUSH1 0x9 SLOAD DUP2 JUMP JUMPDEST CALLVALUE DUP1 ISZERO PUSH2 0x7D8 JUMPI PUSH1 0x0 DUP1 REVERT JUMPDEST POP PUSH2 0x2AC PUSH2 0x7E7 CALLDATASIZE PUSH1 0x4 PUSH2 0x3049 JUMP JUMPDEST PUSH2 0x1A21 JUMP JUMPDEST CALLVALUE DUP1 ISZERO PUSH2 0x7F8 JUMPI PUSH1 0x0 DUP1 REVERT JUMPDEST POP PUSH2 0x415 PUSH32 0x0 DUP2 JUMP JUMPDEST PUSH2 0x2AC PUSH2 0x82E CALLDATASIZE PUSH1 0x4 PUSH2 0x2BDA JUMP JUMPDEST PUSH2 0x1AB6 JUMP JUMPDEST CALLVALUE DUP1 ISZERO PUSH2 0x83F JUMPI PUSH1 0x0 DUP1 REVERT JUMPDEST POP PUSH2 0x3B3 PUSH2 0x84E CALLDATASIZE PUSH1 0x4 PUSH2 0x302C JUMP JUMPDEST PUSH1 0x1 PUSH1 0x1 PUSH1 0xA0 SHL SUB AND PUSH1 0x0 SWAP1 DUP2 MSTORE PUSH1 0xA PUSH1 0x20 MSTORE PUSH1 0x40 SWAP1 KECCAK256 SLOAD SWAP1 JUMP JUMPDEST CALLVALUE DUP1 ISZERO PUSH2 0x875 JUMPI PUSH1 0x0 DUP1 REVERT JUMPDEST POP PUSH2 0x2AC PUSH2 0x884 CALLDATASIZE PUSH1 0x4 PUSH2 0x2D61 JUMP JUMPDEST PUSH2 0x1CCC JUMP JUMPDEST CALLVALUE DUP1 ISZERO PUSH2 0x895 JUMPI PUSH1 0x0 DUP1 REVERT JUMPDEST POP PUSH2 0x2AC PUSH2 0x8A4 CALLDATASIZE PUSH1 0x4 PUSH2 0x30B7 JUMP JUMPDEST PUSH2 0x1CF1 JUMP JUMPDEST CALLVALUE DUP1 ISZERO PUSH2 0x8B5 JUMPI PUSH1 0x0 DUP1 REVERT JUMPDEST POP PUSH2 0x2CE PUSH2 0x8C4 CALLDATASIZE PUSH1 0x4 PUSH2 0x30F3 JUMP JUMPDEST PUSH1 0xB PUSH1 0x20 SWAP1 DUP2 MSTORE PUSH1 0x0 SWAP3 DUP4 MSTORE PUSH1 0x40 DUP1 DUP5 KECCAK256 SWAP1 SWAP2 MSTORE SWAP1 DUP3 MSTORE SWAP1 KECCAK256 SLOAD PUSH1 0xFF AND DUP2 JUMP JUMPDEST CALLVALUE DUP1 ISZERO PUSH2 0x8F0 JUMPI PUSH1 0x0 DUP1 REVERT JUMPDEST POP PUSH2 0x2AC PUSH2 0x8FF CALLDATASIZE PUSH1 0x4 PUSH2 0x2D91 JUMP JUMPDEST PUSH2 0x1D5B JUMP JUMPDEST CALLVALUE DUP1 ISZERO PUSH2 0x910 JUMPI PUSH1 0x0 DUP1 REVERT JUMPDEST POP PUSH2 0x2AC PUSH2 0x91F CALLDATASIZE PUSH1 0x4 PUSH2 0x302C JUMP JUMPDEST PUSH2 0x1DB5 JUMP JUMPDEST CALLVALUE DUP1 ISZERO PUSH2 0x930 JUMPI PUSH1 0x0 DUP1 REVERT JUMPDEST POP PUSH2 0x5B6 PUSH2 0x93F CALLDATASIZE PUSH1 0x4 PUSH2 0x311F JUMP JUMPDEST PUSH2 0x1E2B JUMP JUMPDEST CALLER PUSH32 0x0 PUSH1 0x1 PUSH1 0x1 PUSH1 0xA0 SHL SUB AND EQ PUSH2 0x9C1 JUMPI PUSH1 0x40 MLOAD PUSH3 0x461BCD PUSH1 0xE5 SHL DUP2 MSTORE PUSH1 0x20 PUSH1 0x4 DUP3 ADD MSTORE PUSH1 0x1E PUSH1 0x24 DUP3 ADD MSTORE PUSH32 0x4C7A4170703A20696E76616C696420656E64706F696E742063616C6C65720000 PUSH1 0x44 DUP3 ADD MSTORE PUSH1 0x64 ADD JUMPDEST PUSH1 0x40 MLOAD DUP1 SWAP2 SUB SWAP1 REVERT JUMPDEST PUSH2 0xFFFF DUP7 AND PUSH1 0x0 SWAP1 DUP2 MSTORE PUSH1 0x1 PUSH1 0x20 MSTORE PUSH1 0x40 DUP2 KECCAK256 DUP1 SLOAD PUSH2 0x9DF SWAP1 PUSH2 0x316C JUMP JUMPDEST DUP1 PUSH1 0x1F ADD PUSH1 0x20 DUP1 SWAP2 DIV MUL PUSH1 0x20 ADD PUSH1 0x40 MLOAD SWAP1 DUP2 ADD PUSH1 0x40 MSTORE DUP1 SWAP3 SWAP2 SWAP1 DUP2 DUP2 MSTORE PUSH1 0x20 ADD DUP3 DUP1 SLOAD PUSH2 0xA0B SWAP1 PUSH2 0x316C JUMP JUMPDEST DUP1 ISZERO PUSH2 0xA58 JUMPI DUP1 PUSH1 0x1F LT PUSH2 0xA2D JUMPI PUSH2 0x100 DUP1 DUP4 SLOAD DIV MUL DUP4 MSTORE SWAP2 PUSH1 0x20 ADD SWAP2 PUSH2 0xA58 JUMP JUMPDEST DUP3 ADD SWAP2 SWAP1 PUSH1 0x0 MSTORE PUSH1 0x20 PUSH1 0x0 KECCAK256 SWAP1 JUMPDEST DUP2 SLOAD DUP2 MSTORE SWAP1 PUSH1 0x1 ADD SWAP1 PUSH1 0x20 ADD DUP1 DUP4 GT PUSH2 0xA3B JUMPI DUP3 SWAP1 SUB PUSH1 0x1F AND DUP3 ADD SWAP2 JUMPDEST POP POP POP POP POP SWAP1 POP DUP1 MLOAD DUP7 DUP7 SWAP1 POP EQ DUP1 ISZERO PUSH2 0xA73 JUMPI POP PUSH1 0x0 DUP2 MLOAD GT JUMPDEST DUP1 ISZERO PUSH2 0xA9B JUMPI POP DUP1 MLOAD PUSH1 0x20 DUP3 ADD KECCAK256 PUSH1 0x40 MLOAD PUSH2 0xA91 SWAP1 DUP9 SWAP1 DUP9 SWAP1 PUSH2 0x31A6 JUMP JUMPDEST PUSH1 0x40 MLOAD DUP1 SWAP2 SUB SWAP1 KECCAK256 EQ JUMPDEST PUSH2 0xAF6 JUMPI PUSH1 0x40 MLOAD PUSH3 0x461BCD PUSH1 0xE5 SHL DUP2 MSTORE PUSH1 0x20 PUSH1 0x4 DUP3 ADD MSTORE PUSH1 0x26 PUSH1 0x24 DUP3 ADD MSTORE PUSH32 0x4C7A4170703A20696E76616C696420736F757263652073656E64696E6720636F PUSH1 0x44 DUP3 ADD MSTORE PUSH6 0x1B9D1C9858DD PUSH1 0xD2 SHL PUSH1 0x64 DUP3 ADD MSTORE PUSH1 0x84 ADD PUSH2 0x9B8 JUMP JUMPDEST PUSH2 0xB6C DUP8 DUP8 DUP8 DUP1 DUP1 PUSH1 0x1F ADD PUSH1 0x20 DUP1 SWAP2 DIV MUL PUSH1 0x20 ADD PUSH1 0x40 MLOAD SWAP1 DUP2 ADD PUSH1 0x40 MSTORE DUP1 SWAP4 SWAP3 SWAP2 SWAP1 DUP2 DUP2 MSTORE PUSH1 0x20 ADD DUP4 DUP4 DUP1 DUP3 DUP5 CALLDATACOPY PUSH1 0x0 SWAP3 ADD SWAP2 SWAP1 SWAP2 MSTORE POP POP PUSH1 0x40 DUP1 MLOAD PUSH1 0x20 PUSH1 0x1F DUP11 ADD DUP2 SWAP1 DIV DUP2 MUL DUP3 ADD DUP2 ADD SWAP1 SWAP3 MSTORE DUP9 DUP2 MSTORE DUP11 SWAP4 POP SWAP2 POP DUP9 SWAP1 DUP9 SWAP1 DUP2 SWAP1 DUP5 ADD DUP4 DUP3 DUP1 DUP3 DUP5 CALLDATACOPY PUSH1 0x0 SWAP3 ADD SWAP2 SWAP1 SWAP2 MSTORE POP PUSH2 0x1EDC SWAP3 POP POP POP JUMP JUMPDEST POP POP POP POP POP POP POP JUMP JUMPDEST PUSH1 0x0 PUSH1 0x1 PUSH1 0x1 PUSH1 0xE0 SHL SUB NOT DUP3 AND PUSH4 0x7965DB0B PUSH1 0xE0 SHL EQ DUP1 PUSH2 0xBA6 JUMPI POP PUSH4 0x1FFC9A7 PUSH1 0xE0 SHL PUSH1 0x1 PUSH1 0x1 PUSH1 0xE0 SHL SUB NOT DUP4 AND EQ JUMPDEST SWAP3 SWAP2 POP POP JUMP JUMPDEST PUSH2 0xBB4 PUSH2 0x1F55 JUMP JUMPDEST PUSH1 0x40 MLOAD PUSH4 0x7E0DB17 PUSH1 0xE0 SHL DUP2 MSTORE PUSH2 0xFFFF DUP3 AND PUSH1 0x4 DUP3 ADD MSTORE PUSH32 0x0 PUSH1 0x1 PUSH1 0x1 PUSH1 0xA0 SHL SUB AND SWAP1 PUSH4 0x7E0DB17 SWAP1 PUSH1 0x24 ADD JUMPDEST PUSH1 0x0 PUSH1 0x40 MLOAD DUP1 DUP4 SUB DUP2 PUSH1 0x0 DUP8 DUP1 EXTCODESIZE ISZERO DUP1 ISZERO PUSH2 0xC1A JUMPI PUSH1 0x0 DUP1 REVERT JUMPDEST POP GAS CALL ISZERO DUP1 ISZERO PUSH2 0xC2E JUMPI RETURNDATASIZE PUSH1 0x0 DUP1 RETURNDATACOPY RETURNDATASIZE PUSH1 0x0 REVERT JUMPDEST POP POP POP POP POP JUMP JUMPDEST PUSH2 0xC3D PUSH2 0x1F55 JUMP JUMPDEST PUSH2 0xFFFF SWAP1 SWAP2 AND PUSH1 0x0 SWAP1 DUP2 MSTORE PUSH1 0x3 PUSH1 0x20 MSTORE PUSH1 0x40 SWAP1 KECCAK256 SSTORE JUMP JUMPDEST PUSH2 0xC5C PUSH2 0x1F55 JUMP JUMPDEST PUSH1 0x40 MLOAD PUSH4 0x10DDB137 PUSH1 0xE0 SHL DUP2 MSTORE PUSH2 0xFFFF DUP3 AND PUSH1 0x4 DUP3 ADD MSTORE PUSH32 0x0 PUSH1 0x1 PUSH1 0x1 PUSH1 0xA0 SHL SUB AND SWAP1 PUSH4 0x10DDB137 SWAP1 PUSH1 0x24 ADD PUSH2 0xC00 JUMP JUMPDEST PUSH1 0x0 DUP1 MLOAD PUSH1 0x20 PUSH2 0x3768 DUP4 CODECOPY DUP2 MLOAD SWAP2 MSTORE PUSH2 0xCC4 DUP2 PUSH2 0x1FAF JUMP JUMPDEST PUSH2 0xCCC PUSH2 0x1FB9 JUMP JUMPDEST PUSH1 0x1 PUSH1 0x1 PUSH1 0xA0 SHL SUB DUP4 AND PUSH2 0xCF3 JUMPI PUSH1 0x40 MLOAD PUSH4 0xD92E233D PUSH1 0xE0 SHL DUP2 MSTORE PUSH1 0x4 ADD PUSH1 0x40 MLOAD DUP1 SWAP2 SUB SWAP1 REVERT JUMPDEST POP PUSH2 0xFFFF SWAP1 SWAP3 AND PUSH1 0x0 SWAP1 DUP2 MSTORE PUSH1 0xB PUSH1 0x20 SWAP1 DUP2 MSTORE PUSH1 0x40 DUP1 DUP4 KECCAK256 PUSH1 0x1 PUSH1 0x1 PUSH1 0xA0 SHL SUB SWAP1 SWAP5 AND DUP4 MSTORE SWAP3 SWAP1 MSTORE KECCAK256 DUP1 SLOAD SWAP2 ISZERO ISZERO PUSH1 0xFF NOT SWAP1 SWAP3 AND SWAP2 SWAP1 SWAP2 OR SWAP1 SSTORE JUMP JUMPDEST PUSH1 0x0 DUP1 MLOAD PUSH1 0x20 PUSH2 0x3768 DUP4 CODECOPY DUP2 MLOAD SWAP2 MSTORE PUSH2 0xD47 DUP2 PUSH2 0x1FAF JUMP JUMPDEST PUSH2 0xD4F PUSH2 0x1FB9 JUMP JUMPDEST DUP2 PUSH1 0x0 SUB PUSH2 0xD70 JUMPI PUSH1 0x40 MLOAD PUSH4 0x162908E3 PUSH1 0xE1 SHL DUP2 MSTORE PUSH1 0x4 ADD PUSH1 0x40 MLOAD DUP1 SWAP2 SUB SWAP1 REVERT JUMPDEST PUSH1 0x9 DUP3 SWAP1 SSTORE PUSH1 0x40 MLOAD DUP3 DUP2 MSTORE PUSH32 0x7C1CB3702D8E1FA6D24B12DD90670AB69C6D66D58233103D37DA8B07D6B850AC SWAP1 PUSH1 0x20 ADD PUSH1 0x40 MLOAD DUP1 SWAP2 SUB SWAP1 LOG1 POP POP JUMP JUMPDEST PUSH1 0x0 DUP3 DUP2 MSTORE PUSH1 0x6 PUSH1 0x20 MSTORE PUSH1 0x40 SWAP1 KECCAK256 PUSH1 0x1 ADD SLOAD PUSH2 0xDC7 DUP2 PUSH2 0x1FAF JUMP JUMPDEST PUSH2 0xDD1 DUP4 DUP4 PUSH2 0x1FFF JUMP JUMPDEST POP POP POP JUMP JUMPDEST PUSH1 0x1 PUSH1 0x1 PUSH1 0xA0 SHL SUB DUP2 AND CALLER EQ PUSH2 0xE46 JUMPI PUSH1 0x40 MLOAD PUSH3 0x461BCD PUSH1 0xE5 SHL DUP2 MSTORE PUSH1 0x20 PUSH1 0x4 DUP3 ADD MSTORE PUSH1 0x2F PUSH1 0x24 DUP3 ADD MSTORE PUSH32 0x416363657373436F6E74726F6C3A2063616E206F6E6C792072656E6F756E6365 PUSH1 0x44 DUP3 ADD MSTORE PUSH15 0x103937B632B9903337B91039B2B633 PUSH1 0x89 SHL PUSH1 0x64 DUP3 ADD MSTORE PUSH1 0x84 ADD PUSH2 0x9B8 JUMP JUMPDEST PUSH2 0xE50 DUP3 DUP3 PUSH2 0x2085 JUMP JUMPDEST POP POP JUMP JUMPDEST PUSH2 0xFFFF DUP4 AND PUSH1 0x0 SWAP1 DUP2 MSTORE PUSH1 0x1 PUSH1 0x20 MSTORE PUSH1 0x40 DUP2 KECCAK256 DUP1 SLOAD DUP3 SWAP2 SWAP1 PUSH2 0xE75 SWAP1 PUSH2 0x316C JUMP JUMPDEST DUP1 PUSH1 0x1F ADD PUSH1 0x20 DUP1 SWAP2 DIV MUL PUSH1 0x20 ADD PUSH1 0x40 MLOAD SWAP1 DUP2 ADD PUSH1 0x40 MSTORE DUP1 SWAP3 SWAP2 SWAP1 DUP2 DUP2 MSTORE PUSH1 0x20 ADD DUP3 DUP1 SLOAD PUSH2 0xEA1 SWAP1 PUSH2 0x316C JUMP JUMPDEST DUP1 ISZERO PUSH2 0xEEE JUMPI DUP1 PUSH1 0x1F LT PUSH2 0xEC3 JUMPI PUSH2 0x100 DUP1 DUP4 SLOAD DIV MUL DUP4 MSTORE SWAP2 PUSH1 0x20 ADD SWAP2 PUSH2 0xEEE JUMP JUMPDEST DUP3 ADD SWAP2 SWAP1 PUSH1 0x0 MSTORE PUSH1 0x20 PUSH1 0x0 KECCAK256 SWAP1 JUMPDEST DUP2 SLOAD DUP2 MSTORE SWAP1 PUSH1 0x1 ADD SWAP1 PUSH1 0x20 ADD DUP1 DUP4 GT PUSH2 0xED1 JUMPI DUP3 SWAP1 SUB PUSH1 0x1F AND DUP3 ADD SWAP2 JUMPDEST POP POP POP POP POP SWAP1 POP DUP4 DUP4 PUSH1 0x40 MLOAD PUSH2 0xF05 SWAP3 SWAP2 SWAP1 PUSH2 0x31A6 JUMP JUMPDEST PUSH1 0x40 MLOAD DUP1 SWAP2 SUB SWAP1 KECCAK256 DUP2 DUP1 MLOAD SWAP1 PUSH1 0x20 ADD KECCAK256 EQ SWAP2 POP POP SWAP4 SWAP3 POP POP POP JUMP JUMPDEST PUSH2 0xF28 PUSH2 0x1F55 JUMP JUMPDEST PUSH1 0x40 MLOAD PUSH4 0x42D65A8D PUSH1 0xE0 SHL DUP2 MSTORE PUSH1 0x1 PUSH1 0x1 PUSH1 0xA0 SHL SUB PUSH32 0x0 AND SWAP1 PUSH4 0x42D65A8D SWAP1 PUSH2 0xF78 SWAP1 DUP7 SWAP1 DUP7 SWAP1 DUP7 SWAP1 PUSH1 0x4 ADD PUSH2 0x31DF JUMP JUMPDEST PUSH1 0x0 PUSH1 0x40 MLOAD DUP1 DUP4 SUB DUP2 PUSH1 0x0 DUP8 DUP1 EXTCODESIZE ISZERO DUP1 ISZERO PUSH2 0xF92 JUMPI PUSH1 0x0 DUP1 REVERT JUMPDEST POP GAS CALL ISZERO DUP1 ISZERO PUSH2 0xB6C JUMPI RETURNDATASIZE PUSH1 0x0 DUP1 RETURNDATACOPY RETURNDATASIZE PUSH1 0x0 REVERT JUMPDEST PUSH1 0x40 MLOAD PUSH3 0x461BCD PUSH1 0xE5 SHL DUP2 MSTORE PUSH1 0x20 PUSH1 0x4 DUP3 ADD MSTORE PUSH1 0x2A PUSH1 0x24 DUP3 ADD MSTORE PUSH32 0x446972656374207377617073206E6F7420737570706F72746564202D20757365 PUSH1 0x44 DUP3 ADD MSTORE PUSH10 0x204C617965725A65726F PUSH1 0xB0 SHL PUSH1 0x64 DUP3 ADD MSTORE PUSH1 0x84 ADD PUSH2 0x9B8 JUMP JUMPDEST PUSH1 0x0 DUP1 MLOAD PUSH1 0x20 PUSH2 0x3768 DUP4 CODECOPY DUP2 MLOAD SWAP2 MSTORE PUSH2 0x1019 DUP2 PUSH2 0x1FAF JUMP JUMPDEST PUSH2 0x1021 PUSH2 0x1FB9 JUMP JUMPDEST PUSH2 0x1029 PUSH2 0x20EC JUMP JUMPDEST PUSH2 0x1032 DUP4 PUSH2 0x2145 JUMP JUMPDEST PUSH2 0x104F JUMPI PUSH1 0x40 MLOAD PUSH4 0x350B9441 PUSH1 0xE1 SHL DUP2 MSTORE PUSH1 0x4 ADD PUSH1 0x40 MLOAD DUP1 SWAP2 SUB SWAP1 REVERT JUMPDEST DUP2 PUSH1 0x0 SUB PUSH2 0x1070 JUMPI PUSH1 0x40 MLOAD PUSH4 0x162908E3 PUSH1 0xE1 SHL DUP2 MSTORE PUSH1 0x4 ADD PUSH1 0x40 MLOAD DUP1 SWAP2 SUB SWAP1 REVERT JUMPDEST PUSH1 0x1 PUSH1 0x1 PUSH1 0xA0 SHL SUB DUP4 AND PUSH1 0x0 SWAP1 DUP2 MSTORE PUSH1 0xA PUSH1 0x20 MSTORE PUSH1 0x40 DUP2 KECCAK256 DUP1 SLOAD DUP5 SWAP3 SWAP1 PUSH2 0x1098 SWAP1 DUP5 SWAP1 PUSH2 0x3213 JUMP JUMPDEST SWAP1 SWAP2 SSTORE POP POP PUSH1 0x40 MLOAD PUSH4 0x23B872DD PUSH1 0xE0 SHL DUP2 MSTORE CALLER PUSH1 0x4 DUP3 ADD MSTORE ADDRESS PUSH1 0x24 DUP3 ADD MSTORE PUSH1 0x44 DUP2 ADD DUP4 SWAP1 MSTORE PUSH1 0x0 SWAP1 PUSH1 0x1 PUSH1 0x1 PUSH1 0xA0 SHL SUB DUP6 AND SWAP1 PUSH4 0x23B872DD SWAP1 PUSH1 0x64 ADD PUSH1 0x20 PUSH1 0x40 MLOAD DUP1 DUP4 SUB DUP2 PUSH1 0x0 DUP8 GAS CALL ISZERO DUP1 ISZERO PUSH2 0x10F3 JUMPI RETURNDATASIZE PUSH1 0x0 DUP1 RETURNDATACOPY RETURNDATASIZE PUSH1 0x0 REVERT JUMPDEST POP POP POP POP PUSH1 0x40 MLOAD RETURNDATASIZE PUSH1 0x1F NOT PUSH1 0x1F DUP3 ADD AND DUP3 ADD DUP1 PUSH1 0x40 MSTORE POP DUP2 ADD SWAP1 PUSH2 0x1117 SWAP2 SWAP1 PUSH2 0x3226 JUMP JUMPDEST SWAP1 POP DUP1 PUSH2 0x1137 JUMPI PUSH1 0x40 MLOAD PUSH4 0x12171D83 PUSH1 0xE3 SHL DUP2 MSTORE PUSH1 0x4 ADD PUSH1 0x40 MLOAD DUP1 SWAP2 SUB SWAP1 REVERT JUMPDEST PUSH1 0x40 DUP1 MLOAD PUSH1 0x1 PUSH1 0x1 PUSH1 0xA0 SHL SUB DUP7 AND DUP2 MSTORE PUSH1 0x20 DUP2 ADD DUP6 SWAP1 MSTORE PUSH32 0xC17CEA59C2955CB181B03393209566960365771DBBA9DC3D510180E7CB312088 SWAP2 ADD JUMPDEST PUSH1 0x40 MLOAD DUP1 SWAP2 SUB SWAP1 LOG1 POP PUSH2 0xDD1 PUSH1 0x1 PUSH1 0x8 SSTORE JUMP JUMPDEST CALLER ADDRESS EQ PUSH2 0x11E3 JUMPI PUSH1 0x40 MLOAD PUSH3 0x461BCD PUSH1 0xE5 SHL DUP2 MSTORE PUSH1 0x20 PUSH1 0x4 DUP3 ADD MSTORE PUSH1 0x26 PUSH1 0x24 DUP3 ADD MSTORE PUSH32 0x4E6F6E626C6F636B696E674C7A4170703A2063616C6C6572206D757374206265 PUSH1 0x44 DUP3 ADD MSTORE PUSH6 0x204C7A41707 PUSH1 0xD4 SHL PUSH1 0x64 DUP3 ADD MSTORE PUSH1 0x84 ADD PUSH2 0x9B8 JUMP JUMPDEST PUSH2 0x1259 DUP7 DUP7 DUP7 DUP1 DUP1 PUSH1 0x1F ADD PUSH1 0x20 DUP1 SWAP2 DIV MUL PUSH1 0x20 ADD PUSH1 0x40 MLOAD SWAP1 DUP2 ADD PUSH1 0x40 MSTORE DUP1 SWAP4 SWAP3 SWAP2 SWAP1 DUP2 DUP2 MSTORE PUSH1 0x20 ADD DUP4 DUP4 DUP1 DUP3 DUP5 CALLDATACOPY PUSH1 0x0 SWAP3 ADD SWAP2 SWAP1 SWAP2 MSTORE POP POP PUSH1 0x40 DUP1 MLOAD PUSH1 0x20 PUSH1 0x1F DUP10 ADD DUP2 SWAP1 DIV DUP2 MUL DUP3 ADD DUP2 ADD SWAP1 SWAP3 MSTORE DUP8 DUP2 MSTORE DUP10 SWAP4 POP SWAP2 POP DUP8 SWAP1 DUP8 SWAP1 DUP2 SWAP1 DUP5 ADD DUP4 DUP3 DUP1 DUP3 DUP5 CALLDATACOPY PUSH1 0x0 SWAP3 ADD SWAP2 SWAP1 SWAP2 MSTORE POP PUSH2 0x21F0 SWAP3 POP POP POP JUMP JUMPDEST POP POP POP POP POP POP JUMP JUMPDEST PUSH2 0x1269 PUSH2 0x1F55 JUMP JUMPDEST PUSH2 0x1273 PUSH1 0x0 PUSH2 0x23E8 JUMP JUMPDEST JUMP JUMPDEST PUSH1 0x1 PUSH1 0x20 MSTORE PUSH1 0x0 SWAP1 DUP2 MSTORE PUSH1 0x40 SWAP1 KECCAK256 DUP1 SLOAD PUSH2 0x128E SWAP1 PUSH2 0x316C JUMP JUMPDEST DUP1 PUSH1 0x1F ADD PUSH1 0x20 DUP1 SWAP2 DIV MUL PUSH1 0x20 ADD PUSH1 0x40 MLOAD SWAP1 DUP2 ADD PUSH1 0x40 MSTORE DUP1 SWAP3 SWAP2 SWAP1 DUP2 DUP2 MSTORE PUSH1 0x20 ADD DUP3 DUP1 SLOAD PUSH2 0x12BA SWAP1 PUSH2 0x316C JUMP JUMPDEST DUP1 ISZERO PUSH2 0x1307 JUMPI DUP1 PUSH1 0x1F LT PUSH2 0x12DC JUMPI PUSH2 0x100 DUP1 DUP4 SLOAD DIV MUL DUP4 MSTORE SWAP2 PUSH1 0x20 ADD SWAP2 PUSH2 0x1307 JUMP JUMPDEST DUP3 ADD SWAP2 SWAP1 PUSH1 0x0 MSTORE PUSH1 0x20 PUSH1 0x0 KECCAK256 SWAP1 JUMPDEST DUP2 SLOAD DUP2 MSTORE SWAP1 PUSH1 0x1 ADD SWAP1 PUSH1 0x20 ADD DUP1 DUP4 GT PUSH2 0x12EA JUMPI DUP3 SWAP1 SUB PUSH1 0x1F AND DUP3 ADD SWAP2 JUMPDEST POP POP POP POP POP DUP2 JUMP JUMPDEST PUSH1 0x0 SWAP2 DUP3 MSTORE PUSH1 0x6 PUSH1 0x20 SWAP1 DUP2 MSTORE PUSH1 0x40 DUP1 DUP5 KECCAK256 PUSH1 0x1 PUSH1 0x1 PUSH1 0xA0 SHL SUB SWAP4 SWAP1 SWAP4 AND DUP5 MSTORE SWAP2 SWAP1 MSTORE SWAP1 KECCAK256 SLOAD PUSH1 0xFF AND SWAP1 JUMP JUMPDEST PUSH2 0xFFFF DUP2 AND PUSH1 0x0 SWAP1 DUP2 MSTORE PUSH1 0x1 PUSH1 0x20 MSTORE PUSH1 0x40 DUP2 KECCAK256 DUP1 SLOAD PUSH1 0x60 SWAP3 SWAP2 SWAP1 PUSH2 0x135D SWAP1 PUSH2 0x316C JUMP JUMPDEST DUP1 PUSH1 0x1F ADD PUSH1 0x20 DUP1 SWAP2 DIV MUL PUSH1 0x20 ADD PUSH1 0x40 MLOAD SWAP1 DUP2 ADD PUSH1 0x40 MSTORE DUP1 SWAP3 SWAP2 SWAP1 DUP2 DUP2 MSTORE PUSH1 0x20 ADD DUP3 DUP1 SLOAD PUSH2 0x1389 SWAP1 PUSH2 0x316C JUMP JUMPDEST DUP1 ISZERO PUSH2 0x13D6 JUMPI DUP1 PUSH1 0x1F LT PUSH2 0x13AB JUMPI PUSH2 0x100 DUP1 DUP4 SLOAD DIV MUL DUP4 MSTORE SWAP2 PUSH1 0x20 ADD SWAP2 PUSH2 0x13D6 JUMP JUMPDEST DUP3 ADD SWAP2 SWAP1 PUSH1 0x0 MSTORE PUSH1 0x20 PUSH1 0x0 KECCAK256 SWAP1 JUMPDEST DUP2 SLOAD DUP2 MSTORE SWAP1 PUSH1 0x1 ADD SWAP1 PUSH1 0x20 ADD DUP1 DUP4 GT PUSH2 0x13B9 JUMPI DUP3 SWAP1 SUB PUSH1 0x1F AND DUP3 ADD SWAP2 JUMPDEST POP POP POP POP POP SWAP1 POP DUP1 MLOAD PUSH1 0x0 SUB PUSH2 0x142E JUMPI PUSH1 0x40 MLOAD PUSH3 0x461BCD PUSH1 0xE5 SHL DUP2 MSTORE PUSH1 0x20 PUSH1 0x4 DUP3 ADD MSTORE PUSH1 0x1D PUSH1 0x24 DUP3 ADD MSTORE PUSH32 0x4C7A4170703A206E6F20747275737465642070617468207265636F7264000000 PUSH1 0x44 DUP3 ADD MSTORE PUSH1 0x64 ADD PUSH2 0x9B8 JUMP JUMPDEST PUSH2 0x1449 PUSH1 0x0 PUSH1 0x14 DUP4 MLOAD PUSH2 0x1441 SWAP2 SWAP1 PUSH2 0x3243 JUMP JUMPDEST DUP4 SWAP2 SWAP1 PUSH2 0x2438 JUMP JUMPDEST SWAP4 SWAP3 POP POP POP JUMP JUMPDEST PUSH2 0x1458 PUSH2 0x1FB9 JUMP JUMPDEST PUSH2 0x1460 PUSH2 0x20EC JUMP JUMPDEST PUSH2 0x1469 DUP5 PUSH2 0x2145 JUMP JUMPDEST PUSH2 0x1486 JUMPI PUSH1 0x40 MLOAD PUSH4 0x350B9441 PUSH1 0xE1 SHL DUP2 MSTORE PUSH1 0x4 ADD PUSH1 0x40 MLOAD DUP1 SWAP2 SUB SWAP1 REVERT JUMPDEST DUP3 ISZERO DUP1 PUSH2 0x1494 JUMPI POP PUSH1 0x9 SLOAD DUP4 GT JUMPDEST ISZERO PUSH2 0x14B2 JUMPI PUSH1 0x40 MLOAD PUSH4 0x162908E3 PUSH1 0xE1 SHL DUP2 MSTORE PUSH1 0x4 ADD PUSH1 0x40 MLOAD DUP1 SWAP2 SUB SWAP1 REVERT JUMPDEST PUSH1 0x1 PUSH1 0x1 PUSH1 0xA0 SHL SUB DUP2 AND PUSH2 0x14D9 JUMPI PUSH1 0x40 MLOAD PUSH4 0xAC6B05F5 PUSH1 0xE0 SHL DUP2 MSTORE PUSH1 0x4 ADD PUSH1 0x40 MLOAD DUP1 SWAP2 SUB SWAP1 REVERT JUMPDEST PUSH1 0x40 MLOAD PUSH4 0x4594558F PUSH1 0xE1 SHL DUP2 MSTORE CALLER PUSH1 0x4 DUP3 ADD MSTORE PUSH1 0x24 DUP2 ADD DUP5 SWAP1 MSTORE PUSH1 0x0 SWAP1 PUSH32 0x0 PUSH1 0x1 PUSH1 0x1 PUSH1 0xA0 SHL SUB AND SWAP1 PUSH4 0x8B28AB1E SWAP1 PUSH1 0x44 ADD PUSH1 0x20 PUSH1 0x40 MLOAD DUP1 DUP4 SUB DUP2 DUP7 GAS STATICCALL ISZERO DUP1 ISZERO PUSH2 0x1547 JUMPI RETURNDATASIZE PUSH1 0x0 DUP1 RETURNDATACOPY RETURNDATASIZE PUSH1 0x0 REVERT JUMPDEST POP POP POP POP PUSH1 0x40 MLOAD RETURNDATASIZE PUSH1 0x1F NOT PUSH1 0x1F DUP3 ADD AND DUP3 ADD DUP1 PUSH1 0x40 MSTORE POP DUP2 ADD SWAP1 PUSH2 0x156B SWAP2 SWAP1 PUSH2 0x3256 JUMP JUMPDEST SWAP1 POP PUSH1 0x0 PUSH2 0x1579 DUP3 DUP7 PUSH2 0x3243 JUMP JUMPDEST PUSH1 0x40 MLOAD PUSH4 0x23B872DD PUSH1 0xE0 SHL DUP2 MSTORE CALLER PUSH1 0x4 DUP3 ADD MSTORE ADDRESS PUSH1 0x24 DUP3 ADD MSTORE PUSH1 0x44 DUP2 ADD DUP8 SWAP1 MSTORE SWAP1 SWAP2 POP PUSH1 0x0 SWAP1 PUSH1 0x1 PUSH1 0x1 PUSH1 0xA0 SHL SUB DUP9 AND SWAP1 PUSH4 0x23B872DD SWAP1 PUSH1 0x64 ADD PUSH1 0x20 PUSH1 0x40 MLOAD DUP1 DUP4 SUB DUP2 PUSH1 0x0 DUP8 GAS CALL ISZERO DUP1 ISZERO PUSH2 0x15D2 JUMPI RETURNDATASIZE PUSH1 0x0 DUP1 RETURNDATACOPY RETURNDATASIZE PUSH1 0x0 REVERT JUMPDEST POP POP POP POP PUSH1 0x40 MLOAD RETURNDATASIZE PUSH1 0x1F NOT PUSH1 0x1F DUP3 ADD AND DUP3 ADD DUP1 PUSH1 0x40 MSTORE POP DUP2 ADD SWAP1 PUSH2 0x15F6 SWAP2 SWAP1 PUSH2 0x3226 JUMP JUMPDEST SWAP1 POP DUP1 PUSH2 0x1616 JUMPI PUSH1 0x40 MLOAD PUSH4 0x12171D83 PUSH1 0xE3 SHL DUP2 MSTORE PUSH1 0x4 ADD PUSH1 0x40 MLOAD DUP1 SWAP2 SUB SWAP1 REVERT JUMPDEST PUSH1 0x40 MLOAD PUSH4 0x28634B5D PUSH1 0xE0 SHL DUP2 MSTORE PUSH1 0x1 PUSH1 0x1 PUSH1 0xA0 SHL SUB DUP9 DUP2 AND PUSH1 0x4 DUP4 ADD MSTORE PUSH1 0x24 DUP3 ADD DUP6 SWAP1 MSTORE PUSH32 0x0 AND SWAP1 PUSH4 0x28634B5D SWAP1 PUSH1 0x44 ADD PUSH1 0x0 PUSH1 0x40 MLOAD DUP1 DUP4 SUB DUP2 PUSH1 0x0 DUP8 DUP1 EXTCODESIZE ISZERO DUP1 ISZERO PUSH2 0x1680 JUMPI PUSH1 0x0 DUP1 REVERT JUMPDEST POP GAS CALL ISZERO DUP1 ISZERO PUSH2 0x1694 JUMPI RETURNDATASIZE PUSH1 0x0 DUP1 RETURNDATACOPY RETURNDATASIZE PUSH1 0x0 REVERT JUMPDEST POP POP PUSH1 0x40 DUP1 MLOAD PUSH1 0x1 PUSH1 0x1 PUSH1 0xA0 SHL SUB DUP1 DUP13 AND PUSH1 0x20 DUP4 ADD MSTORE SWAP2 DUP2 ADD DUP7 SWAP1 MSTORE SWAP1 DUP8 AND PUSH1 0x60 DUP3 ADD MSTORE PUSH1 0x0 SWAP3 POP PUSH1 0x80 ADD SWAP1 POP PUSH1 0x40 MLOAD PUSH1 0x20 DUP2 DUP4 SUB SUB DUP2 MSTORE SWAP1 PUSH1 0x40 MSTORE SWAP1 POP PUSH2 0x16F0 DUP7 DUP3 CALLER PUSH1 0x0 PUSH1 0x40 MLOAD DUP1 PUSH1 0x20 ADD PUSH1 0x40 MSTORE DUP1 PUSH1 0x0 DUP2 MSTORE POP CALLVALUE PUSH2 0x2545 JUMP JUMPDEST PUSH1 0x40 DUP1 MLOAD PUSH1 0x1 PUSH1 0x1 PUSH1 0xA0 SHL SUB DUP11 DUP2 AND DUP3 MSTORE PUSH1 0x20 DUP3 ADD DUP11 SWAP1 MSTORE PUSH2 0xFFFF DUP10 AND DUP3 DUP5 ADD MSTORE DUP8 AND PUSH1 0x60 DUP3 ADD MSTORE PUSH1 0x80 DUP2 ADD DUP7 SWAP1 MSTORE SWAP1 MLOAD PUSH32 0x56596A9E2B07E147DD86A640A3E1C385E1FF34352E5133D50165EA5C510100BE SWAP2 DUP2 SWAP1 SUB PUSH1 0xA0 ADD SWAP1 LOG1 POP POP POP POP PUSH2 0x1759 PUSH1 0x1 PUSH1 0x8 SSTORE JUMP JUMPDEST POP POP POP POP JUMP JUMPDEST PUSH1 0x0 DUP1 MLOAD PUSH1 0x20 PUSH2 0x3768 DUP4 CODECOPY DUP2 MLOAD SWAP2 MSTORE PUSH2 0x1777 DUP2 PUSH2 0x1FAF JUMP JUMPDEST PUSH2 0x177F PUSH2 0x1FB9 JUMP JUMPDEST PUSH2 0x1787 PUSH2 0x20EC JUMP JUMPDEST PUSH2 0x1790 DUP4 PUSH2 0x2145 JUMP JUMPDEST PUSH2 0x17AD JUMPI PUSH1 0x40 MLOAD PUSH4 0x350B9441 PUSH1 0xE1 SHL DUP2 MSTORE PUSH1 0x4 ADD PUSH1 0x40 MLOAD DUP1 SWAP2 SUB SWAP1 REVERT JUMPDEST DUP2 PUSH1 0x0 SUB PUSH2 0x17CE JUMPI PUSH1 0x40 MLOAD PUSH4 0x162908E3 PUSH1 0xE1 SHL DUP2 MSTORE PUSH1 0x4 ADD PUSH1 0x40 MLOAD DUP1 SWAP2 SUB SWAP1 REVERT JUMPDEST PUSH1 0x1 PUSH1 0x1 PUSH1 0xA0 SHL SUB DUP4 AND PUSH1 0x0 SWAP1 DUP2 MSTORE PUSH1 0xA PUSH1 0x20 MSTORE PUSH1 0x40 SWAP1 KECCAK256 SLOAD DUP3 GT ISZERO PUSH2 0x1807 JUMPI PUSH1 0x40 MLOAD PUSH4 0xBC6072F1 PUSH1 0xE0 SHL DUP2 MSTORE PUSH1 0x4 ADD PUSH1 0x40 MLOAD DUP1 SWAP2 SUB SWAP1 REVERT JUMPDEST PUSH1 0x1 PUSH1 0x1 PUSH1 0xA0 SHL SUB DUP4 AND PUSH1 0x0 SWAP1 DUP2 MSTORE PUSH1 0xA PUSH1 0x20 MSTORE PUSH1 0x40 DUP2 KECCAK256 DUP1 SLOAD DUP5 SWAP3 SWAP1 PUSH2 0x182F SWAP1 DUP5 SWAP1 PUSH2 0x3243 JUMP JUMPDEST SWAP1 SWAP2 SSTORE POP POP PUSH1 0x40 MLOAD PUSH4 0xA9059CBB PUSH1 0xE0 SHL DUP2 MSTORE CALLER PUSH1 0x4 DUP3 ADD MSTORE PUSH1 0x24 DUP2 ADD DUP4 SWAP1 MSTORE PUSH1 0x0 SWAP1 PUSH1 0x1 PUSH1 0x1 PUSH1 0xA0 SHL SUB DUP6 AND SWAP1 PUSH4 0xA9059CBB SWAP1 PUSH1 0x44 ADD PUSH1 0x20 PUSH1 0x40 MLOAD DUP1 DUP4 SUB DUP2 PUSH1 0x0 DUP8 GAS CALL ISZERO DUP1 ISZERO PUSH2 0x1884 JUMPI RETURNDATASIZE PUSH1 0x0 DUP1 RETURNDATACOPY RETURNDATASIZE PUSH1 0x0 REVERT JUMPDEST POP POP POP POP PUSH1 0x40 MLOAD RETURNDATASIZE PUSH1 0x1F NOT PUSH1 0x1F DUP3 ADD AND DUP3 ADD DUP1 PUSH1 0x40 MSTORE POP DUP2 ADD SWAP1 PUSH2 0x18A8 SWAP2 SWAP1 PUSH2 0x3226 JUMP JUMPDEST SWAP1 POP DUP1 PUSH2 0x18C8 JUMPI PUSH1 0x40 MLOAD PUSH4 0x12171D83 PUSH1 0xE3 SHL DUP2 MSTORE PUSH1 0x4 ADD PUSH1 0x40 MLOAD DUP1 SWAP2 SUB SWAP1 REVERT JUMPDEST PUSH1 0x40 DUP1 MLOAD PUSH1 0x1 PUSH1 0x1 PUSH1 0xA0 SHL SUB DUP7 AND DUP2 MSTORE PUSH1 0x20 DUP2 ADD DUP6 SWAP1 MSTORE PUSH32 0xC2C3F06E49B9F15E7B4AF9055E183B0D73362E033AD82A07DEC9BF9840171719 SWAP2 ADD PUSH2 0x1172 JUMP JUMPDEST PUSH2 0x190F PUSH2 0x1F55 JUMP JUMPDEST DUP2 DUP2 ADDRESS PUSH1 0x40 MLOAD PUSH1 0x20 ADD PUSH2 0x1924 SWAP4 SWAP3 SWAP2 SWAP1 PUSH2 0x326F JUMP JUMPDEST PUSH1 0x40 DUP1 MLOAD PUSH1 0x1F NOT DUP2 DUP5 SUB ADD DUP2 MSTORE SWAP2 DUP2 MSTORE PUSH2 0xFFFF DUP6 AND PUSH1 0x0 SWAP1 DUP2 MSTORE PUSH1 0x1 PUSH1 0x20 MSTORE KECCAK256 SWAP1 PUSH2 0x194F SWAP1 DUP3 PUSH2 0x32DB JUMP JUMPDEST POP PUSH32 0x8C0400CFE2D1199B1A725C78960BCC2A344D869B80590D0F2BD005DB15A572CE DUP4 DUP4 DUP4 PUSH1 0x40 MLOAD PUSH2 0x1983 SWAP4 SWAP3 SWAP2 SWAP1 PUSH2 0x31DF JUMP JUMPDEST PUSH1 0x40 MLOAD DUP1 SWAP2 SUB SWAP1 LOG1 POP POP POP JUMP JUMPDEST PUSH2 0x1998 PUSH2 0x1F55 JUMP JUMPDEST PUSH1 0x4 DUP1 SLOAD PUSH1 0x1 PUSH1 0x1 PUSH1 0xA0 SHL SUB NOT AND PUSH1 0x1 PUSH1 0x1 PUSH1 0xA0 SHL SUB DUP4 AND SWAP1 DUP2 OR SWAP1 SWAP2 SSTORE PUSH1 0x40 MLOAD SWAP1 DUP2 MSTORE PUSH32 0x5DB758E995A17EC1AD84BDEF7E8C3293A0BD6179BCCE400DFF5D4C3D87DB726B SWAP1 PUSH1 0x20 ADD PUSH1 0x40 MLOAD DUP1 SWAP2 SUB SWAP1 LOG1 POP JUMP JUMPDEST PUSH1 0x0 DUP1 MLOAD PUSH1 0x20 PUSH2 0x3768 DUP4 CODECOPY DUP2 MLOAD SWAP2 MSTORE PUSH2 0x1A04 DUP2 PUSH2 0x1FAF JUMP JUMPDEST PUSH1 0x7 SLOAD PUSH1 0xFF AND PUSH2 0x1A19 JUMPI PUSH2 0x1A16 PUSH2 0x26EA JUMP JUMPDEST POP JUMP JUMPDEST PUSH2 0x1A16 PUSH2 0x2744 JUMP JUMPDEST PUSH2 0x1A29 PUSH2 0x1F55 JUMP JUMPDEST PUSH1 0x40 MLOAD PUSH4 0x32FB62E7 PUSH1 0xE2 SHL DUP2 MSTORE PUSH1 0x1 PUSH1 0x1 PUSH1 0xA0 SHL SUB PUSH32 0x0 AND SWAP1 PUSH4 0xCBED8B9C SWAP1 PUSH2 0x1A7D SWAP1 DUP9 SWAP1 DUP9 SWAP1 DUP9 SWAP1 DUP9 SWAP1 DUP9 SWAP1 PUSH1 0x4 ADD PUSH2 0x339A JUMP JUMPDEST PUSH1 0x0 PUSH1 0x40 MLOAD DUP1 DUP4 SUB DUP2 PUSH1 0x0 DUP8 DUP1 EXTCODESIZE ISZERO DUP1 ISZERO PUSH2 0x1A97 JUMPI PUSH1 0x0 DUP1 REVERT JUMPDEST POP GAS CALL ISZERO DUP1 ISZERO PUSH2 0x1AAB JUMPI RETURNDATASIZE PUSH1 0x0 DUP1 RETURNDATACOPY RETURNDATASIZE PUSH1 0x0 REVERT JUMPDEST POP POP POP POP POP POP POP POP POP JUMP JUMPDEST PUSH2 0xFFFF DUP7 AND PUSH1 0x0 SWAP1 DUP2 MSTORE PUSH1 0x5 PUSH1 0x20 MSTORE PUSH1 0x40 DUP1 DUP3 KECCAK256 SWAP1 MLOAD PUSH2 0x1AD9 SWAP1 DUP9 SWAP1 DUP9 SWAP1 PUSH2 0x31A6 JUMP JUMPDEST SWAP1 DUP2 MSTORE PUSH1 0x40 DUP1 MLOAD PUSH1 0x20 SWAP3 DUP2 SWAP1 SUB DUP4 ADD SWAP1 KECCAK256 PUSH1 0x1 PUSH1 0x1 PUSH1 0x40 SHL SUB DUP8 AND PUSH1 0x0 SWAP1 DUP2 MSTORE SWAP3 MSTORE SWAP1 KECCAK256 SLOAD SWAP1 POP DUP1 PUSH2 0x1B59 JUMPI PUSH1 0x40 MLOAD PUSH3 0x461BCD PUSH1 0xE5 SHL DUP2 MSTORE PUSH1 0x20 PUSH1 0x4 DUP3 ADD MSTORE PUSH1 0x23 PUSH1 0x24 DUP3 ADD MSTORE PUSH32 0x4E6F6E626C6F636B696E674C7A4170703A206E6F2073746F726564206D657373 PUSH1 0x44 DUP3 ADD MSTORE PUSH3 0x616765 PUSH1 0xE8 SHL PUSH1 0x64 DUP3 ADD MSTORE PUSH1 0x84 ADD PUSH2 0x9B8 JUMP JUMPDEST DUP1 DUP4 DUP4 PUSH1 0x40 MLOAD PUSH2 0x1B6A SWAP3 SWAP2 SWAP1 PUSH2 0x31A6 JUMP JUMPDEST PUSH1 0x40 MLOAD DUP1 SWAP2 SUB SWAP1 KECCAK256 EQ PUSH2 0x1BC9 JUMPI PUSH1 0x40 MLOAD PUSH3 0x461BCD PUSH1 0xE5 SHL DUP2 MSTORE PUSH1 0x20 PUSH1 0x4 DUP3 ADD MSTORE PUSH1 0x21 PUSH1 0x24 DUP3 ADD MSTORE PUSH32 0x4E6F6E626C6F636B696E674C7A4170703A20696E76616C6964207061796C6F61 PUSH1 0x44 DUP3 ADD MSTORE PUSH1 0x19 PUSH1 0xFA SHL PUSH1 0x64 DUP3 ADD MSTORE PUSH1 0x84 ADD PUSH2 0x9B8 JUMP JUMPDEST PUSH2 0xFFFF DUP8 AND PUSH1 0x0 SWAP1 DUP2 MSTORE PUSH1 0x5 PUSH1 0x20 MSTORE PUSH1 0x40 DUP1 DUP3 KECCAK256 SWAP1 MLOAD PUSH2 0x1BEC SWAP1 DUP10 SWAP1 DUP10 SWAP1 PUSH2 0x31A6 JUMP JUMPDEST SWAP1 DUP2 MSTORE PUSH1 0x40 DUP1 MLOAD PUSH1 0x20 SWAP3 DUP2 SWAP1 SUB DUP4 ADD DUP2 KECCAK256 PUSH1 0x1 PUSH1 0x1 PUSH1 0x40 SHL SUB DUP10 AND PUSH1 0x0 SWAP1 DUP2 MSTORE SWAP1 DUP5 MSTORE DUP3 SWAP1 KECCAK256 SWAP4 SWAP1 SWAP4 SSTORE PUSH1 0x1F DUP9 ADD DUP3 SWAP1 DIV DUP3 MUL DUP4 ADD DUP3 ADD SWAP1 MSTORE DUP7 DUP3 MSTORE PUSH2 0x1C84 SWAP2 DUP10 SWAP2 DUP10 SWAP1 DUP10 SWAP1 DUP2 SWAP1 DUP5 ADD DUP4 DUP3 DUP1 DUP3 DUP5 CALLDATACOPY PUSH1 0x0 SWAP3 ADD SWAP2 SWAP1 SWAP2 MSTORE POP POP PUSH1 0x40 DUP1 MLOAD PUSH1 0x20 PUSH1 0x1F DUP11 ADD DUP2 SWAP1 DIV DUP2 MUL DUP3 ADD DUP2 ADD SWAP1 SWAP3 MSTORE DUP9 DUP2 MSTORE DUP11 SWAP4 POP SWAP2 POP DUP9 SWAP1 DUP9 SWAP1 DUP2 SWAP1 DUP5 ADD DUP4 DUP3 DUP1 DUP3 DUP5 CALLDATACOPY PUSH1 0x0 SWAP3 ADD SWAP2 SWAP1 SWAP2 MSTORE POP PUSH2 0x21F0 SWAP3 POP POP POP JUMP JUMPDEST PUSH32 0xC264D91F3ADC5588250E1551F547752CA0CFA8F6B530D243B9F9F4CAB10EA8E5 DUP8 DUP8 DUP8 DUP8 DUP6 PUSH1 0x40 MLOAD PUSH2 0x1CBB SWAP6 SWAP5 SWAP4 SWAP3 SWAP2 SWAP1 PUSH2 0x33D3 JUMP JUMPDEST PUSH1 0x40 MLOAD DUP1 SWAP2 SUB SWAP1 LOG1 POP POP POP POP POP POP POP JUMP JUMPDEST PUSH1 0x0 DUP3 DUP2 MSTORE PUSH1 0x6 PUSH1 0x20 MSTORE PUSH1 0x40 SWAP1 KECCAK256 PUSH1 0x1 ADD SLOAD PUSH2 0x1CE7 DUP2 PUSH2 0x1FAF JUMP JUMPDEST PUSH2 0xDD1 DUP4 DUP4 PUSH2 0x2085 JUMP JUMPDEST PUSH2 0x1CF9 PUSH2 0x1F55 JUMP JUMPDEST PUSH2 0xFFFF DUP4 DUP2 AND PUSH1 0x0 DUP2 DUP2 MSTORE PUSH1 0x2 PUSH1 0x20 SWAP1 DUP2 MSTORE PUSH1 0x40 DUP1 DUP4 KECCAK256 SWAP5 DUP8 AND DUP1 DUP5 MSTORE SWAP5 DUP3 MSTORE SWAP2 DUP3 SWAP1 KECCAK256 DUP6 SWAP1 SSTORE DUP2 MLOAD SWAP3 DUP4 MSTORE DUP3 ADD SWAP3 SWAP1 SWAP3 MSTORE SWAP1 DUP2 ADD DUP3 SWAP1 MSTORE PUSH32 0x9D5C7C0B934DA8FEFA9C7760C98383778A12DFBFC0C3B3106518F43FB9508AC0 SWAP1 PUSH1 0x60 ADD PUSH2 0x1983 JUMP JUMPDEST PUSH2 0x1D63 PUSH2 0x1F55 JUMP JUMPDEST PUSH2 0xFFFF DUP4 AND PUSH1 0x0 SWAP1 DUP2 MSTORE PUSH1 0x1 PUSH1 0x20 MSTORE PUSH1 0x40 SWAP1 KECCAK256 PUSH2 0x1D81 DUP3 DUP5 DUP4 PUSH2 0x340E JUMP JUMPDEST POP PUSH32 0xFA41487AD5D6728F0B19276FA1EDDC16558578F5109FC39D2DC33C3230470DAB DUP4 DUP4 DUP4 PUSH1 0x40 MLOAD PUSH2 0x1983 SWAP4 SWAP3 SWAP2 SWAP1 PUSH2 0x31DF JUMP JUMPDEST PUSH2 0x1DBD PUSH2 0x1F55 JUMP JUMPDEST PUSH1 0x1 PUSH1 0x1 PUSH1 0xA0 SHL SUB DUP2 AND PUSH2 0x1E22 JUMPI PUSH1 0x40 MLOAD PUSH3 0x461BCD PUSH1 0xE5 SHL DUP2 MSTORE PUSH1 0x20 PUSH1 0x4 DUP3 ADD MSTORE PUSH1 0x26 PUSH1 0x24 DUP3 ADD MSTORE PUSH32 0x4F776E61626C653A206E6577206F776E657220697320746865207A65726F2061 PUSH1 0x44 DUP3 ADD MSTORE PUSH6 0x646472657373 PUSH1 0xD0 SHL PUSH1 0x64 DUP3 ADD MSTORE PUSH1 0x84 ADD PUSH2 0x9B8 JUMP JUMPDEST PUSH2 0x1A16 DUP2 PUSH2 0x23E8 JUMP JUMPDEST PUSH1 0x40 MLOAD PUSH4 0x3D7B2F6F PUSH1 0xE2 SHL DUP2 MSTORE PUSH2 0xFFFF DUP1 DUP7 AND PUSH1 0x4 DUP4 ADD MSTORE DUP5 AND PUSH1 0x24 DUP3 ADD MSTORE ADDRESS PUSH1 0x44 DUP3 ADD MSTORE PUSH1 0x64 DUP2 ADD DUP3 SWAP1 MSTORE PUSH1 0x60 SWAP1 PUSH32 0x0 PUSH1 0x1 PUSH1 0x1 PUSH1 0xA0 SHL SUB AND SWAP1 PUSH4 0xF5ECBDBC SWAP1 PUSH1 0x84 ADD PUSH1 0x0 PUSH1 0x40 MLOAD DUP1 DUP4 SUB DUP2 DUP7 GAS STATICCALL ISZERO DUP1 ISZERO PUSH2 0x1EAB JUMPI RETURNDATASIZE PUSH1 0x0 DUP1 RETURNDATACOPY RETURNDATASIZE PUSH1 0x0 REVERT JUMPDEST POP POP POP POP PUSH1 0x40 MLOAD RETURNDATASIZE PUSH1 0x0 DUP3 RETURNDATACOPY PUSH1 0x1F RETURNDATASIZE SWAP1 DUP2 ADD PUSH1 0x1F NOT AND DUP3 ADD PUSH1 0x40 MSTORE PUSH2 0x1ED3 SWAP2 SWAP1 DUP2 ADD SWAP1 PUSH2 0x34CD JUMP JUMPDEST SWAP6 SWAP5 POP POP POP POP POP JUMP JUMPDEST PUSH1 0x0 DUP1 PUSH2 0x1F3F GAS PUSH1 0x96 PUSH4 0x66AD5C8A PUSH1 0xE0 SHL DUP10 DUP10 DUP10 DUP10 PUSH1 0x40 MLOAD PUSH1 0x24 ADD PUSH2 0x1F04 SWAP5 SWAP4 SWAP3 SWAP2 SWAP1 PUSH2 0x353A JUMP JUMPDEST PUSH1 0x40 DUP1 MLOAD PUSH1 0x1F NOT DUP2 DUP5 SUB ADD DUP2 MSTORE SWAP2 SWAP1 MSTORE PUSH1 0x20 DUP2 ADD DUP1 MLOAD PUSH1 0x1 PUSH1 0x1 PUSH1 0xE0 SHL SUB AND PUSH1 0x1 PUSH1 0x1 PUSH1 0xE0 SHL SUB NOT SWAP1 SWAP4 AND SWAP3 SWAP1 SWAP3 OR SWAP1 SWAP2 MSTORE ADDRESS SWAP3 SWAP2 SWAP1 PUSH2 0x277D JUMP JUMPDEST SWAP2 POP SWAP2 POP DUP2 PUSH2 0x1259 JUMPI PUSH2 0x1259 DUP7 DUP7 DUP7 DUP7 DUP6 PUSH2 0x2807 JUMP JUMPDEST PUSH1 0x0 SLOAD PUSH1 0x1 PUSH1 0x1 PUSH1 0xA0 SHL SUB AND CALLER EQ PUSH2 0x1273 JUMPI PUSH1 0x40 MLOAD PUSH3 0x461BCD PUSH1 0xE5 SHL DUP2 MSTORE PUSH1 0x20 PUSH1 0x4 DUP3 ADD DUP2 SWAP1 MSTORE PUSH1 0x24 DUP3 ADD MSTORE PUSH32 0x4F776E61626C653A2063616C6C6572206973206E6F7420746865206F776E6572 PUSH1 0x44 DUP3 ADD MSTORE PUSH1 0x64 ADD PUSH2 0x9B8 JUMP JUMPDEST PUSH2 0x1A16 DUP2 CALLER PUSH2 0x28A4 JUMP JUMPDEST PUSH1 0x7 SLOAD PUSH1 0xFF AND ISZERO PUSH2 0x1273 JUMPI PUSH1 0x40 MLOAD PUSH3 0x461BCD PUSH1 0xE5 SHL DUP2 MSTORE PUSH1 0x20 PUSH1 0x4 DUP3 ADD MSTORE PUSH1 0x10 PUSH1 0x24 DUP3 ADD MSTORE PUSH16 0x14185D5CD8589B194E881C185D5CD959 PUSH1 0x82 SHL PUSH1 0x44 DUP3 ADD MSTORE PUSH1 0x64 ADD PUSH2 0x9B8 JUMP JUMPDEST PUSH2 0x2009 DUP3 DUP3 PUSH2 0x130F JUMP JUMPDEST PUSH2 0xE50 JUMPI PUSH1 0x0 DUP3 DUP2 MSTORE PUSH1 0x6 PUSH1 0x20 SWAP1 DUP2 MSTORE PUSH1 0x40 DUP1 DUP4 KECCAK256 PUSH1 0x1 PUSH1 0x1 PUSH1 0xA0 SHL SUB DUP6 AND DUP5 MSTORE SWAP1 SWAP2 MSTORE SWAP1 KECCAK256 DUP1 SLOAD PUSH1 0xFF NOT AND PUSH1 0x1 OR SWAP1 SSTORE PUSH2 0x2041 CALLER SWAP1 JUMP JUMPDEST PUSH1 0x1 PUSH1 0x1 PUSH1 0xA0 SHL SUB AND DUP2 PUSH1 0x1 PUSH1 0x1 PUSH1 0xA0 SHL SUB AND DUP4 PUSH32 0x2F8788117E7EFF1D82E926EC794901D17C78024A50270940304540A733656F0D PUSH1 0x40 MLOAD PUSH1 0x40 MLOAD DUP1 SWAP2 SUB SWAP1 LOG4 POP POP JUMP JUMPDEST PUSH2 0x208F DUP3 DUP3 PUSH2 0x130F JUMP JUMPDEST ISZERO PUSH2 0xE50 JUMPI PUSH1 0x0 DUP3 DUP2 MSTORE PUSH1 0x6 PUSH1 0x20 SWAP1 DUP2 MSTORE PUSH1 0x40 DUP1 DUP4 KECCAK256 PUSH1 0x1 PUSH1 0x1 PUSH1 0xA0 SHL SUB DUP6 AND DUP1 DUP6 MSTORE SWAP3 MSTORE DUP1 DUP4 KECCAK256 DUP1 SLOAD PUSH1 0xFF NOT AND SWAP1 SSTORE MLOAD CALLER SWAP3 DUP6 SWAP2 PUSH32 0xF6391F5C32D9C69D2A47EA670B442974B53935D1EDC7FD64EB21E047A839171B SWAP2 SWAP1 LOG4 POP POP JUMP JUMPDEST PUSH1 0x2 PUSH1 0x8 SLOAD SUB PUSH2 0x213E JUMPI PUSH1 0x40 MLOAD PUSH3 0x461BCD PUSH1 0xE5 SHL DUP2 MSTORE PUSH1 0x20 PUSH1 0x4 DUP3 ADD MSTORE PUSH1 0x1F PUSH1 0x24 DUP3 ADD MSTORE PUSH32 0x5265656E7472616E637947756172643A207265656E7472616E742063616C6C00 PUSH1 0x44 DUP3 ADD MSTORE PUSH1 0x64 ADD PUSH2 0x9B8 JUMP JUMPDEST PUSH1 0x2 PUSH1 0x8 SSTORE JUMP JUMPDEST PUSH1 0x0 PUSH32 0x0 PUSH1 0x1 PUSH1 0x1 PUSH1 0xA0 SHL SUB AND DUP3 PUSH1 0x1 PUSH1 0x1 PUSH1 0xA0 SHL SUB AND EQ DUP1 PUSH2 0xBA6 JUMPI POP PUSH32 0x0 PUSH1 0x1 PUSH1 0x1 PUSH1 0xA0 SHL SUB AND ISZERO DUP1 ISZERO SWAP1 PUSH2 0xBA6 JUMPI POP PUSH32 0x0 PUSH1 0x1 PUSH1 0x1 PUSH1 0xA0 SHL SUB AND DUP3 PUSH1 0x1 PUSH1 0x1 PUSH1 0xA0 SHL SUB AND EQ SWAP3 SWAP2 POP POP JUMP JUMPDEST PUSH1 0x0 DUP4 DUP1 PUSH1 0x20 ADD SWAP1 MLOAD DUP2 ADD SWAP1 PUSH2 0x2206 SWAP2 SWAP1 PUSH2 0x3578 JUMP JUMPDEST PUSH2 0xFFFF DUP7 AND PUSH1 0x0 SWAP1 DUP2 MSTORE PUSH1 0xB PUSH1 0x20 SWAP1 DUP2 MSTORE PUSH1 0x40 DUP1 DUP4 KECCAK256 PUSH1 0x1 PUSH1 0x1 PUSH1 0xA0 SHL SUB DUP6 AND DUP5 MSTORE SWAP1 SWAP2 MSTORE SWAP1 KECCAK256 SLOAD SWAP1 SWAP2 POP PUSH1 0xFF AND PUSH2 0x2251 JUMPI PUSH1 0x40 MLOAD PUSH4 0x15530153 PUSH1 0xE3 SHL DUP2 MSTORE PUSH1 0x4 ADD PUSH1 0x40 MLOAD DUP1 SWAP2 SUB SWAP1 REVERT JUMPDEST PUSH1 0x0 DUP1 PUSH1 0x0 DUP5 DUP1 PUSH1 0x20 ADD SWAP1 MLOAD DUP2 ADD SWAP1 PUSH2 0x226A SWAP2 SWAP1 PUSH2 0x3595 JUMP JUMPDEST SWAP3 POP SWAP3 POP SWAP3 POP PUSH2 0x2279 DUP4 PUSH2 0x2145 JUMP JUMPDEST PUSH2 0x2296 JUMPI PUSH1 0x40 MLOAD PUSH4 0x350B9441 PUSH1 0xE1 SHL DUP2 MSTORE PUSH1 0x4 ADD PUSH1 0x40 MLOAD DUP1 SWAP2 SUB SWAP1 REVERT JUMPDEST PUSH1 0x1 PUSH1 0x1 PUSH1 0xA0 SHL SUB DUP4 AND PUSH1 0x0 SWAP1 DUP2 MSTORE PUSH1 0xA PUSH1 0x20 MSTORE PUSH1 0x40 SWAP1 KECCAK256 SLOAD DUP3 GT ISZERO PUSH2 0x22CF JUMPI PUSH1 0x40 MLOAD PUSH4 0xBC6072F1 PUSH1 0xE0 SHL DUP2 MSTORE PUSH1 0x4 ADD PUSH1 0x40 MLOAD DUP1 SWAP2 SUB SWAP1 REVERT JUMPDEST PUSH1 0x1 PUSH1 0x1 PUSH1 0xA0 SHL SUB DUP4 AND PUSH1 0x0 SWAP1 DUP2 MSTORE PUSH1 0xA PUSH1 0x20 MSTORE PUSH1 0x40 DUP2 KECCAK256 DUP1 SLOAD DUP5 SWAP3 SWAP1 PUSH2 0x22F7 SWAP1 DUP5 SWAP1 PUSH2 0x3243 JUMP JUMPDEST SWAP1 SWAP2 SSTORE POP POP PUSH1 0x40 MLOAD PUSH4 0xA9059CBB PUSH1 0xE0 SHL DUP2 MSTORE PUSH1 0x1 PUSH1 0x1 PUSH1 0xA0 SHL SUB DUP3 DUP2 AND PUSH1 0x4 DUP4 ADD MSTORE PUSH1 0x24 DUP3 ADD DUP5 SWAP1 MSTORE PUSH1 0x0 SWAP2 SWAP1 DUP6 AND SWAP1 PUSH4 0xA9059CBB SWAP1 PUSH1 0x44 ADD PUSH1 0x20 PUSH1 0x40 MLOAD DUP1 DUP4 SUB DUP2 PUSH1 0x0 DUP8 GAS CALL ISZERO DUP1 ISZERO PUSH2 0x234F JUMPI RETURNDATASIZE PUSH1 0x0 DUP1 RETURNDATACOPY RETURNDATASIZE PUSH1 0x0 REVERT JUMPDEST POP POP POP POP PUSH1 0x40 MLOAD RETURNDATASIZE PUSH1 0x1F NOT PUSH1 0x1F DUP3 ADD AND DUP3 ADD DUP1 PUSH1 0x40 MSTORE POP DUP2 ADD SWAP1 PUSH2 0x2373 SWAP2 SWAP1 PUSH2 0x3226 JUMP JUMPDEST SWAP1 POP DUP1 PUSH2 0x2393 JUMPI PUSH1 0x40 MLOAD PUSH4 0x12171D83 PUSH1 0xE3 SHL DUP2 MSTORE PUSH1 0x4 ADD PUSH1 0x40 MLOAD DUP1 SWAP2 SUB SWAP1 REVERT JUMPDEST PUSH1 0x40 DUP1 MLOAD PUSH1 0x1 PUSH1 0x1 PUSH1 0xA0 SHL SUB DUP7 DUP2 AND DUP3 MSTORE PUSH1 0x20 DUP3 ADD DUP7 SWAP1 MSTORE DUP5 AND DUP2 DUP4 ADD MSTORE SWAP1 MLOAD PUSH32 0x6BBEFCD7325035947BAD7982DDFF18911E737A882F33A62C7144011B861597D5 SWAP2 DUP2 SWAP1 SUB PUSH1 0x60 ADD SWAP1 LOG1 POP POP POP POP POP POP POP POP POP JUMP JUMPDEST PUSH1 0x0 DUP1 SLOAD PUSH1 0x1 PUSH1 0x1 PUSH1 0xA0 SHL SUB DUP4 DUP2 AND PUSH1 0x1 PUSH1 0x1 PUSH1 0xA0 SHL SUB NOT DUP4 AND DUP2 OR DUP5 SSTORE PUSH1 0x40 MLOAD SWAP2 SWAP1 SWAP3 AND SWAP3 DUP4 SWAP2 PUSH32 0x8BE0079C531659141344CD1FD0A4F28419497F9722A3DAAFE3B4186F6B6457E0 SWAP2 SWAP1 LOG3 POP POP JUMP JUMPDEST PUSH1 0x60 DUP2 PUSH2 0x2446 DUP2 PUSH1 0x1F PUSH2 0x3213 JUMP JUMPDEST LT ISZERO PUSH2 0x2485 JUMPI PUSH1 0x40 MLOAD PUSH3 0x461BCD PUSH1 0xE5 SHL DUP2 MSTORE PUSH1 0x20 PUSH1 0x4 DUP3 ADD MSTORE PUSH1 0xE PUSH1 0x24 DUP3 ADD MSTORE PUSH14 0x736C6963655F6F766572666C6F77 PUSH1 0x90 SHL PUSH1 0x44 DUP3 ADD MSTORE PUSH1 0x64 ADD PUSH2 0x9B8 JUMP JUMPDEST PUSH2 0x248F DUP3 DUP5 PUSH2 0x3213 JUMP JUMPDEST DUP5 MLOAD LT ISZERO PUSH2 0x24D3 JUMPI PUSH1 0x40 MLOAD PUSH3 0x461BCD PUSH1 0xE5 SHL DUP2 MSTORE PUSH1 0x20 PUSH1 0x4 DUP3 ADD MSTORE PUSH1 0x11 PUSH1 0x24 DUP3 ADD MSTORE PUSH17 0x736C6963655F6F75744F66426F756E6473 PUSH1 0x78 SHL PUSH1 0x44 DUP3 ADD MSTORE PUSH1 0x64 ADD PUSH2 0x9B8 JUMP JUMPDEST PUSH1 0x60 DUP3 ISZERO DUP1 ISZERO PUSH2 0x24F2 JUMPI PUSH1 0x40 MLOAD SWAP2 POP PUSH1 0x0 DUP3 MSTORE PUSH1 0x20 DUP3 ADD PUSH1 0x40 MSTORE PUSH2 0x253C JUMP JUMPDEST PUSH1 0x40 MLOAD SWAP2 POP PUSH1 0x1F DUP5 AND DUP1 ISZERO PUSH1 0x20 MUL DUP2 DUP5 ADD ADD DUP6 DUP2 ADD DUP8 DUP4 ISZERO PUSH1 0x20 MUL DUP5 DUP12 ADD ADD ADD JUMPDEST DUP2 DUP4 LT ISZERO PUSH2 0x252B JUMPI DUP1 MLOAD DUP4 MSTORE PUSH1 0x20 SWAP3 DUP4 ADD SWAP3 ADD PUSH2 0x2513 JUMP JUMPDEST POP POP DUP6 DUP5 MSTORE PUSH1 0x1F ADD PUSH1 0x1F NOT AND PUSH1 0x40 MSTORE POP JUMPDEST POP SWAP5 SWAP4 POP POP POP POP JUMP JUMPDEST PUSH2 0xFFFF DUP7 AND PUSH1 0x0 SWAP1 DUP2 MSTORE PUSH1 0x1 PUSH1 0x20 MSTORE PUSH1 0x40 DUP2 KECCAK256 DUP1 SLOAD PUSH2 0x2563 SWAP1 PUSH2 0x316C JUMP JUMPDEST DUP1 PUSH1 0x1F ADD PUSH1 0x20 DUP1 SWAP2 DIV MUL PUSH1 0x20 ADD PUSH1 0x40 MLOAD SWAP1 DUP2 ADD PUSH1 0x40 MSTORE DUP1 SWAP3 SWAP2 SWAP1 DUP2 DUP2 MSTORE PUSH1 0x20 ADD DUP3 DUP1 SLOAD PUSH2 0x258F SWAP1 PUSH2 0x316C JUMP JUMPDEST DUP1 ISZERO PUSH2 0x25DC JUMPI DUP1 PUSH1 0x1F LT PUSH2 0x25B1 JUMPI PUSH2 0x100 DUP1 DUP4 SLOAD DIV MUL DUP4 MSTORE SWAP2 PUSH1 0x20 ADD SWAP2 PUSH2 0x25DC JUMP JUMPDEST DUP3 ADD SWAP2 SWAP1 PUSH1 0x0 MSTORE PUSH1 0x20 PUSH1 0x0 KECCAK256 SWAP1 JUMPDEST DUP2 SLOAD DUP2 MSTORE SWAP1 PUSH1 0x1 ADD SWAP1 PUSH1 0x20 ADD DUP1 DUP4 GT PUSH2 0x25BF JUMPI DUP3 SWAP1 SUB PUSH1 0x1F AND DUP3 ADD SWAP2 JUMPDEST POP POP POP POP POP SWAP1 POP DUP1 MLOAD PUSH1 0x0 SUB PUSH2 0x264D JUMPI PUSH1 0x40 MLOAD PUSH3 0x461BCD PUSH1 0xE5 SHL DUP2 MSTORE PUSH1 0x20 PUSH1 0x4 DUP3 ADD MSTORE PUSH1 0x30 PUSH1 0x24 DUP3 ADD MSTORE PUSH32 0x4C7A4170703A2064657374696E6174696F6E20636861696E206973206E6F7420 PUSH1 0x44 DUP3 ADD MSTORE PUSH16 0x61207472757374656420736F75726365 PUSH1 0x80 SHL PUSH1 0x64 DUP3 ADD MSTORE PUSH1 0x84 ADD PUSH2 0x9B8 JUMP JUMPDEST PUSH2 0x2658 DUP8 DUP8 MLOAD PUSH2 0x28FD JUMP JUMPDEST PUSH1 0x40 MLOAD PUSH3 0xC58031 PUSH1 0xE8 SHL DUP2 MSTORE PUSH1 0x1 PUSH1 0x1 PUSH1 0xA0 SHL SUB PUSH32 0x0 AND SWAP1 PUSH4 0xC5803100 SWAP1 DUP5 SWAP1 PUSH2 0x26AF SWAP1 DUP12 SWAP1 DUP7 SWAP1 DUP13 SWAP1 DUP13 SWAP1 DUP13 SWAP1 DUP13 SWAP1 PUSH1 0x4 ADD PUSH2 0x35CD JUMP JUMPDEST PUSH1 0x0 PUSH1 0x40 MLOAD DUP1 DUP4 SUB DUP2 DUP6 DUP9 DUP1 EXTCODESIZE ISZERO DUP1 ISZERO PUSH2 0x26C8 JUMPI PUSH1 0x0 DUP1 REVERT JUMPDEST POP GAS CALL ISZERO DUP1 ISZERO PUSH2 0x26DC JUMPI RETURNDATASIZE PUSH1 0x0 DUP1 RETURNDATACOPY RETURNDATASIZE PUSH1 0x0 REVERT JUMPDEST POP POP POP POP POP POP POP POP POP POP POP POP JUMP JUMPDEST PUSH2 0x26F2 PUSH2 0x1FB9 JUMP JUMPDEST PUSH1 0x7 DUP1 SLOAD PUSH1 0xFF NOT AND PUSH1 0x1 OR SWAP1 SSTORE PUSH32 0x62E78CEA01BEE320CD4E420270B5EA74000D11B0C9F74754EBDBFC544B05A258 PUSH2 0x2727 CALLER SWAP1 JUMP JUMPDEST PUSH1 0x40 MLOAD PUSH1 0x1 PUSH1 0x1 PUSH1 0xA0 SHL SUB SWAP1 SWAP2 AND DUP2 MSTORE PUSH1 0x20 ADD PUSH1 0x40 MLOAD DUP1 SWAP2 SUB SWAP1 LOG1 JUMP JUMPDEST PUSH2 0x274C PUSH2 0x296E JUMP JUMPDEST PUSH1 0x7 DUP1 SLOAD PUSH1 0xFF NOT AND SWAP1 SSTORE PUSH32 0x5DB9EE0A495BF2E6FF9C91A7834C1BA4FDD244A5E8AA4E537BD38AEAE4B073AA CALLER PUSH2 0x2727 JUMP JUMPDEST PUSH1 0x0 PUSH1 0x60 PUSH1 0x0 DUP1 PUSH1 0x0 DUP7 PUSH2 0xFFFF AND PUSH1 0x1 PUSH1 0x1 PUSH1 0x40 SHL SUB DUP2 GT ISZERO PUSH2 0x27A2 JUMPI PUSH2 0x27A2 PUSH2 0x2E38 JUMP JUMPDEST PUSH1 0x40 MLOAD SWAP1 DUP1 DUP3 MSTORE DUP1 PUSH1 0x1F ADD PUSH1 0x1F NOT AND PUSH1 0x20 ADD DUP3 ADD PUSH1 0x40 MSTORE DUP1 ISZERO PUSH2 0x27CC JUMPI PUSH1 0x20 DUP3 ADD DUP2 DUP1 CALLDATASIZE DUP4 CALLDATACOPY ADD SWAP1 POP JUMPDEST POP SWAP1 POP PUSH1 0x0 DUP1 DUP8 MLOAD PUSH1 0x20 DUP10 ADD PUSH1 0x0 DUP14 DUP14 CALL SWAP2 POP RETURNDATASIZE SWAP3 POP DUP7 DUP4 GT ISZERO PUSH2 0x27EE JUMPI DUP7 SWAP3 POP JUMPDEST DUP3 DUP2 MSTORE DUP3 PUSH1 0x0 PUSH1 0x20 DUP4 ADD RETURNDATACOPY SWAP1 SWAP9 SWAP1 SWAP8 POP SWAP6 POP POP POP POP POP POP JUMP JUMPDEST DUP2 DUP1 MLOAD SWAP1 PUSH1 0x20 ADD KECCAK256 PUSH1 0x5 PUSH1 0x0 DUP8 PUSH2 0xFFFF AND PUSH2 0xFFFF AND DUP2 MSTORE PUSH1 0x20 ADD SWAP1 DUP2 MSTORE PUSH1 0x20 ADD PUSH1 0x0 KECCAK256 DUP6 PUSH1 0x40 MLOAD PUSH2 0x2838 SWAP2 SWAP1 PUSH2 0x3634 JUMP JUMPDEST SWAP1 DUP2 MSTORE PUSH1 0x40 DUP1 MLOAD SWAP2 DUP3 SWAP1 SUB PUSH1 0x20 SWAP1 DUP2 ADD DUP4 KECCAK256 PUSH1 0x1 PUSH1 0x1 PUSH1 0x40 SHL SUB DUP9 AND PUSH1 0x0 SWAP1 DUP2 MSTORE SWAP2 MSTORE KECCAK256 SWAP2 SWAP1 SWAP2 SSTORE PUSH32 0xE183F33DE2837795525B4792CA4CD60535BD77C53B7E7030060BFCF5734D6B0C SWAP1 PUSH2 0x2895 SWAP1 DUP8 SWAP1 DUP8 SWAP1 DUP8 SWAP1 DUP8 SWAP1 DUP8 SWAP1 PUSH2 0x3650 JUMP JUMPDEST PUSH1 0x40 MLOAD DUP1 SWAP2 SUB SWAP1 LOG1 POP POP POP POP POP JUMP JUMPDEST PUSH2 0x28AE DUP3 DUP3 PUSH2 0x130F JUMP JUMPDEST PUSH2 0xE50 JUMPI PUSH2 0x28BB DUP2 PUSH2 0x29B7 JUMP JUMPDEST PUSH2 0x28C6 DUP4 PUSH1 0x20 PUSH2 0x29C9 JUMP JUMPDEST PUSH1 0x40 MLOAD PUSH1 0x20 ADD PUSH2 0x28D7 SWAP3 SWAP2 SWAP1 PUSH2 0x36AE JUMP JUMPDEST PUSH1 0x40 DUP1 MLOAD PUSH1 0x1F NOT DUP2 DUP5 SUB ADD DUP2 MSTORE SWAP1 DUP3 SWAP1 MSTORE PUSH3 0x461BCD PUSH1 0xE5 SHL DUP3 MSTORE PUSH2 0x9B8 SWAP2 PUSH1 0x4 ADD PUSH2 0x2F95 JUMP JUMPDEST PUSH2 0xFFFF DUP3 AND PUSH1 0x0 SWAP1 DUP2 MSTORE PUSH1 0x3 PUSH1 0x20 MSTORE PUSH1 0x40 DUP2 KECCAK256 SLOAD SWAP1 DUP2 SWAP1 SUB PUSH2 0x291E JUMPI POP PUSH2 0x2710 JUMPDEST DUP1 DUP3 GT ISZERO PUSH2 0xDD1 JUMPI PUSH1 0x40 MLOAD PUSH3 0x461BCD PUSH1 0xE5 SHL DUP2 MSTORE PUSH1 0x20 PUSH1 0x4 DUP3 ADD DUP2 SWAP1 MSTORE PUSH1 0x24 DUP3 ADD MSTORE PUSH32 0x4C7A4170703A207061796C6F61642073697A6520697320746F6F206C61726765 PUSH1 0x44 DUP3 ADD MSTORE PUSH1 0x64 ADD PUSH2 0x9B8 JUMP JUMPDEST PUSH1 0x7 SLOAD PUSH1 0xFF AND PUSH2 0x1273 JUMPI PUSH1 0x40 MLOAD PUSH3 0x461BCD PUSH1 0xE5 SHL DUP2 MSTORE PUSH1 0x20 PUSH1 0x4 DUP3 ADD MSTORE PUSH1 0x14 PUSH1 0x24 DUP3 ADD MSTORE PUSH20 0x14185D5CD8589B194E881B9BDD081C185D5CD959 PUSH1 0x62 SHL PUSH1 0x44 DUP3 ADD MSTORE PUSH1 0x64 ADD PUSH2 0x9B8 JUMP JUMPDEST PUSH1 0x60 PUSH2 0xBA6 PUSH1 0x1 PUSH1 0x1 PUSH1 0xA0 SHL SUB DUP4 AND PUSH1 0x14 JUMPDEST PUSH1 0x60 PUSH1 0x0 PUSH2 0x29D8 DUP4 PUSH1 0x2 PUSH2 0x3723 JUMP JUMPDEST PUSH2 0x29E3 SWAP1 PUSH1 0x2 PUSH2 0x3213 JUMP JUMPDEST PUSH1 0x1 PUSH1 0x1 PUSH1 0x40 SHL SUB DUP2 GT ISZERO PUSH2 0x29FA JUMPI PUSH2 0x29FA PUSH2 0x2E38 JUMP JUMPDEST PUSH1 0x40 MLOAD SWAP1 DUP1 DUP3 MSTORE DUP1 PUSH1 0x1F ADD PUSH1 0x1F NOT AND PUSH1 0x20 ADD DUP3 ADD PUSH1 0x40 MSTORE DUP1 ISZERO PUSH2 0x2A24 JUMPI PUSH1 0x20 DUP3 ADD DUP2 DUP1 CALLDATASIZE DUP4 CALLDATACOPY ADD SWAP1 POP JUMPDEST POP SWAP1 POP PUSH1 0x3 PUSH1 0xFC SHL DUP2 PUSH1 0x0 DUP2 MLOAD DUP2 LT PUSH2 0x2A3F JUMPI PUSH2 0x2A3F PUSH2 0x373A JUMP JUMPDEST PUSH1 0x20 ADD ADD SWAP1 PUSH1 0x1 PUSH1 0x1 PUSH1 0xF8 SHL SUB NOT AND SWAP1 DUP2 PUSH1 0x0 BYTE SWAP1 MSTORE8 POP PUSH1 0xF PUSH1 0xFB SHL DUP2 PUSH1 0x1 DUP2 MLOAD DUP2 LT PUSH2 0x2A6E JUMPI PUSH2 0x2A6E PUSH2 0x373A JUMP JUMPDEST PUSH1 0x20 ADD ADD SWAP1 PUSH1 0x1 PUSH1 0x1 PUSH1 0xF8 SHL SUB NOT AND SWAP1 DUP2 PUSH1 0x0 BYTE SWAP1 MSTORE8 POP PUSH1 0x0 PUSH2 0x2A92 DUP5 PUSH1 0x2 PUSH2 0x3723 JUMP JUMPDEST PUSH2 0x2A9D SWAP1 PUSH1 0x1 PUSH2 0x3213 JUMP JUMPDEST SWAP1 POP JUMPDEST PUSH1 0x1 DUP2 GT ISZERO PUSH2 0x2B15 JUMPI PUSH16 0x181899199A1A9B1B9C1CB0B131B232B3 PUSH1 0x81 SHL DUP6 PUSH1 0xF AND PUSH1 0x10 DUP2 LT PUSH2 0x2AD1 JUMPI PUSH2 0x2AD1 PUSH2 0x373A JUMP JUMPDEST BYTE PUSH1 0xF8 SHL DUP3 DUP3 DUP2 MLOAD DUP2 LT PUSH2 0x2AE7 JUMPI PUSH2 0x2AE7 PUSH2 0x373A JUMP JUMPDEST PUSH1 0x20 ADD ADD SWAP1 PUSH1 0x1 PUSH1 0x1 PUSH1 0xF8 SHL SUB NOT AND SWAP1 DUP2 PUSH1 0x0 BYTE SWAP1 MSTORE8 POP PUSH1 0x4 SWAP5 SWAP1 SWAP5 SHR SWAP4 PUSH2 0x2B0E DUP2 PUSH2 0x3750 JUMP JUMPDEST SWAP1 POP PUSH2 0x2AA0 JUMP JUMPDEST POP DUP4 ISZERO PUSH2 0x1449 JUMPI PUSH1 0x40 MLOAD PUSH3 0x461BCD PUSH1 0xE5 SHL DUP2 MSTORE PUSH1 0x20 PUSH1 0x4 DUP3 ADD DUP2 SWAP1 MSTORE PUSH1 0x24 DUP3 ADD MSTORE PUSH32 0x537472696E67733A20686578206C656E67746820696E73756666696369656E74 PUSH1 0x44 DUP3 ADD MSTORE PUSH1 0x64 ADD PUSH2 0x9B8 JUMP JUMPDEST DUP1 CALLDATALOAD PUSH2 0xFFFF DUP2 AND DUP2 EQ PUSH2 0x2B76 JUMPI PUSH1 0x0 DUP1 REVERT JUMPDEST SWAP2 SWAP1 POP JUMP JUMPDEST PUSH1 0x0 DUP1 DUP4 PUSH1 0x1F DUP5 ADD SLT PUSH2 0x2B8D JUMPI PUSH1 0x0 DUP1 REVERT JUMPDEST POP DUP2 CALLDATALOAD PUSH1 0x1 PUSH1 0x1 PUSH1 0x40 SHL SUB DUP2 GT ISZERO PUSH2 0x2BA4 JUMPI PUSH1 0x0 DUP1 REVERT JUMPDEST PUSH1 0x20 DUP4 ADD SWAP2 POP DUP4 PUSH1 0x20 DUP3 DUP6 ADD ADD GT ISZERO PUSH2 0x2BBC JUMPI PUSH1 0x0 DUP1 REVERT JUMPDEST SWAP3 POP SWAP3 SWAP1 POP JUMP JUMPDEST DUP1 CALLDATALOAD PUSH1 0x1 PUSH1 0x1 PUSH1 0x40 SHL SUB DUP2 AND DUP2 EQ PUSH2 0x2B76 JUMPI PUSH1 0x0 DUP1 REVERT JUMPDEST PUSH1 0x0 DUP1 PUSH1 0x0 DUP1 PUSH1 0x0 DUP1 PUSH1 0x80 DUP8 DUP10 SUB SLT ISZERO PUSH2 0x2BF3 JUMPI PUSH1 0x0 DUP1 REVERT JUMPDEST PUSH2 0x2BFC DUP8 PUSH2 0x2B64 JUMP JUMPDEST SWAP6 POP PUSH1 0x20 DUP8 ADD CALLDATALOAD PUSH1 0x1 PUSH1 0x1 PUSH1 0x40 SHL SUB DUP1 DUP3 GT ISZERO PUSH2 0x2C18 JUMPI PUSH1 0x0 DUP1 REVERT JUMPDEST PUSH2 0x2C24 DUP11 DUP4 DUP12 ADD PUSH2 0x2B7B JUMP JUMPDEST SWAP1 SWAP8 POP SWAP6 POP DUP6 SWAP2 POP PUSH2 0x2C38 PUSH1 0x40 DUP11 ADD PUSH2 0x2BC3 JUMP JUMPDEST SWAP5 POP PUSH1 0x60 DUP10 ADD CALLDATALOAD SWAP2 POP DUP1 DUP3 GT ISZERO PUSH2 0x2C4E JUMPI PUSH1 0x0 DUP1 REVERT JUMPDEST POP PUSH2 0x2C5B DUP10 DUP3 DUP11 ADD PUSH2 0x2B7B JUMP JUMPDEST SWAP8 SWAP11 SWAP7 SWAP10 POP SWAP5 SWAP8 POP SWAP3 SWAP6 SWAP4 SWAP5 SWAP3 POP POP POP JUMP JUMPDEST PUSH1 0x0 PUSH1 0x20 DUP3 DUP5 SUB SLT ISZERO PUSH2 0x2C7F JUMPI PUSH1 0x0 DUP1 REVERT JUMPDEST DUP2 CALLDATALOAD PUSH1 0x1 PUSH1 0x1 PUSH1 0xE0 SHL SUB NOT DUP2 AND DUP2 EQ PUSH2 0x1449 JUMPI PUSH1 0x0 DUP1 REVERT JUMPDEST PUSH1 0x0 PUSH1 0x20 DUP3 DUP5 SUB SLT ISZERO PUSH2 0x2CA9 JUMPI PUSH1 0x0 DUP1 REVERT JUMPDEST PUSH2 0x1449 DUP3 PUSH2 0x2B64 JUMP JUMPDEST PUSH1 0x0 DUP1 PUSH1 0x40 DUP4 DUP6 SUB SLT ISZERO PUSH2 0x2CC5 JUMPI PUSH1 0x0 DUP1 REVERT JUMPDEST PUSH2 0x2CCE DUP4 PUSH2 0x2B64 JUMP JUMPDEST SWAP5 PUSH1 0x20 SWAP4 SWAP1 SWAP4 ADD CALLDATALOAD SWAP4 POP POP POP JUMP JUMPDEST PUSH1 0x1 PUSH1 0x1 PUSH1 0xA0 SHL SUB DUP2 AND DUP2 EQ PUSH2 0x1A16 JUMPI PUSH1 0x0 DUP1 REVERT JUMPDEST DUP1 ISZERO ISZERO DUP2 EQ PUSH2 0x1A16 JUMPI PUSH1 0x0 DUP1 REVERT JUMPDEST PUSH1 0x0 DUP1 PUSH1 0x0 PUSH1 0x60 DUP5 DUP7 SUB SLT ISZERO PUSH2 0x2D14 JUMPI PUSH1 0x0 DUP1 REVERT JUMPDEST PUSH2 0x2D1D DUP5 PUSH2 0x2B64 JUMP JUMPDEST SWAP3 POP PUSH1 0x20 DUP5 ADD CALLDATALOAD PUSH2 0x2D2D DUP2 PUSH2 0x2CDC JUMP JUMPDEST SWAP2 POP PUSH1 0x40 DUP5 ADD CALLDATALOAD PUSH2 0x2D3D DUP2 PUSH2 0x2CF1 JUMP JUMPDEST DUP1 SWAP2 POP POP SWAP3 POP SWAP3 POP SWAP3 JUMP JUMPDEST PUSH1 0x0 PUSH1 0x20 DUP3 DUP5 SUB SLT ISZERO PUSH2 0x2D5A JUMPI PUSH1 0x0 DUP1 REVERT JUMPDEST POP CALLDATALOAD SWAP2 SWAP1 POP JUMP JUMPDEST PUSH1 0x0 DUP1 PUSH1 0x40 DUP4 DUP6 SUB SLT ISZERO PUSH2 0x2D74 JUMPI PUSH1 0x0 DUP1 REVERT JUMPDEST DUP3 CALLDATALOAD SWAP2 POP PUSH1 0x20 DUP4 ADD CALLDATALOAD PUSH2 0x2D86 DUP2 PUSH2 0x2CDC JUMP JUMPDEST DUP1 SWAP2 POP POP SWAP3 POP SWAP3 SWAP1 POP JUMP JUMPDEST PUSH1 0x0 DUP1 PUSH1 0x0 PUSH1 0x40 DUP5 DUP7 SUB SLT ISZERO PUSH2 0x2DA6 JUMPI PUSH1 0x0 DUP1 REVERT JUMPDEST PUSH2 0x2DAF DUP5 PUSH2 0x2B64 JUMP JUMPDEST SWAP3 POP PUSH1 0x20 DUP5 ADD CALLDATALOAD PUSH1 0x1 PUSH1 0x1 PUSH1 0x40 SHL SUB DUP2 GT ISZERO PUSH2 0x2DCA JUMPI PUSH1 0x0 DUP1 REVERT JUMPDEST PUSH2 0x2DD6 DUP7 DUP3 DUP8 ADD PUSH2 0x2B7B JUMP JUMPDEST SWAP5 SWAP8 SWAP1 SWAP7 POP SWAP4 SWAP5 POP POP POP POP JUMP JUMPDEST PUSH1 0x0 DUP1 PUSH1 0x0 PUSH1 0x60 DUP5 DUP7 SUB SLT ISZERO PUSH2 0x2DF8 JUMPI PUSH1 0x0 DUP1 REVERT JUMPDEST DUP4 CALLDATALOAD PUSH2 0x2E03 DUP2 PUSH2 0x2CDC JUMP JUMPDEST SWAP3 POP PUSH1 0x20 DUP5 ADD CALLDATALOAD SWAP2 POP PUSH1 0x40 DUP5 ADD CALLDATALOAD PUSH2 0x2D3D DUP2 PUSH2 0x2CDC JUMP JUMPDEST PUSH1 0x0 DUP1 PUSH1 0x40 DUP4 DUP6 SUB SLT ISZERO PUSH2 0x2E2D JUMPI PUSH1 0x0 DUP1 REVERT JUMPDEST DUP3 CALLDATALOAD PUSH2 0x2CCE DUP2 PUSH2 0x2CDC JUMP JUMPDEST PUSH4 0x4E487B71 PUSH1 0xE0 SHL PUSH1 0x0 MSTORE PUSH1 0x41 PUSH1 0x4 MSTORE PUSH1 0x24 PUSH1 0x0 REVERT JUMPDEST PUSH1 0x40 MLOAD PUSH1 0x1F DUP3 ADD PUSH1 0x1F NOT AND DUP2 ADD PUSH1 0x1 PUSH1 0x1 PUSH1 0x40 SHL SUB DUP2 GT DUP3 DUP3 LT OR ISZERO PUSH2 0x2E76 JUMPI PUSH2 0x2E76 PUSH2 0x2E38 JUMP JUMPDEST PUSH1 0x40 MSTORE SWAP2 SWAP1 POP JUMP JUMPDEST PUSH1 0x0 PUSH1 0x1 PUSH1 0x1 PUSH1 0x40 SHL SUB DUP3 GT ISZERO PUSH2 0x2E97 JUMPI PUSH2 0x2E97 PUSH2 0x2E38 JUMP JUMPDEST POP PUSH1 0x1F ADD PUSH1 0x1F NOT AND PUSH1 0x20 ADD SWAP1 JUMP JUMPDEST PUSH1 0x0 DUP1 PUSH1 0x0 PUSH1 0x60 DUP5 DUP7 SUB SLT ISZERO PUSH2 0x2EBA JUMPI PUSH1 0x0 DUP1 REVERT JUMPDEST PUSH2 0x2EC3 DUP5 PUSH2 0x2B64 JUMP JUMPDEST SWAP3 POP PUSH1 0x20 DUP5 ADD CALLDATALOAD PUSH1 0x1 PUSH1 0x1 PUSH1 0x40 SHL SUB DUP2 GT ISZERO PUSH2 0x2EDE JUMPI PUSH1 0x0 DUP1 REVERT JUMPDEST DUP5 ADD PUSH1 0x1F DUP2 ADD DUP7 SGT PUSH2 0x2EEF JUMPI PUSH1 0x0 DUP1 REVERT JUMPDEST DUP1 CALLDATALOAD PUSH2 0x2F02 PUSH2 0x2EFD DUP3 PUSH2 0x2E7E JUMP JUMPDEST PUSH2 0x2E4E JUMP JUMPDEST DUP2 DUP2 MSTORE DUP8 PUSH1 0x20 DUP4 DUP6 ADD ADD GT ISZERO PUSH2 0x2F17 JUMPI PUSH1 0x0 DUP1 REVERT JUMPDEST DUP2 PUSH1 0x20 DUP5 ADD PUSH1 0x20 DUP4 ADD CALLDATACOPY PUSH1 0x0 PUSH1 0x20 DUP4 DUP4 ADD ADD MSTORE DUP1 SWAP5 POP POP POP POP PUSH2 0x2F3C PUSH1 0x40 DUP6 ADD PUSH2 0x2BC3 JUMP JUMPDEST SWAP1 POP SWAP3 POP SWAP3 POP SWAP3 JUMP JUMPDEST PUSH1 0x0 JUMPDEST DUP4 DUP2 LT ISZERO PUSH2 0x2F60 JUMPI DUP2 DUP2 ADD MLOAD DUP4 DUP3 ADD MSTORE PUSH1 0x20 ADD PUSH2 0x2F48 JUMP JUMPDEST POP POP PUSH1 0x0 SWAP2 ADD MSTORE JUMP JUMPDEST PUSH1 0x0 DUP2 MLOAD DUP1 DUP5 MSTORE PUSH2 0x2F81 DUP2 PUSH1 0x20 DUP7 ADD PUSH1 0x20 DUP7 ADD PUSH2 0x2F45 JUMP JUMPDEST PUSH1 0x1F ADD PUSH1 0x1F NOT AND SWAP3 SWAP1 SWAP3 ADD PUSH1 0x20 ADD SWAP3 SWAP2 POP POP JUMP JUMPDEST PUSH1 0x20 DUP2 MSTORE PUSH1 0x0 PUSH2 0x1449 PUSH1 0x20 DUP4 ADD DUP5 PUSH2 0x2F69 JUMP JUMPDEST PUSH1 0x0 DUP1 PUSH1 0x40 DUP4 DUP6 SUB SLT ISZERO PUSH2 0x2FBB JUMPI PUSH1 0x0 DUP1 REVERT JUMPDEST PUSH2 0x2FC4 DUP4 PUSH2 0x2B64 JUMP JUMPDEST SWAP2 POP PUSH2 0x2FD2 PUSH1 0x20 DUP5 ADD PUSH2 0x2B64 JUMP JUMPDEST SWAP1 POP SWAP3 POP SWAP3 SWAP1 POP JUMP JUMPDEST PUSH1 0x0 DUP1 PUSH1 0x0 DUP1 PUSH1 0x80 DUP6 DUP8 SUB SLT ISZERO PUSH2 0x2FF1 JUMPI PUSH1 0x0 DUP1 REVERT JUMPDEST DUP5 CALLDATALOAD PUSH2 0x2FFC DUP2 PUSH2 0x2CDC JUMP JUMPDEST SWAP4 POP PUSH1 0x20 DUP6 ADD CALLDATALOAD SWAP3 POP PUSH2 0x3011 PUSH1 0x40 DUP7 ADD PUSH2 0x2B64 JUMP JUMPDEST SWAP2 POP PUSH1 0x60 DUP6 ADD CALLDATALOAD PUSH2 0x3021 DUP2 PUSH2 0x2CDC JUMP JUMPDEST SWAP4 SWAP7 SWAP3 SWAP6 POP SWAP1 SWAP4 POP POP JUMP JUMPDEST PUSH1 0x0 PUSH1 0x20 DUP3 DUP5 SUB SLT ISZERO PUSH2 0x303E JUMPI PUSH1 0x0 DUP1 REVERT JUMPDEST DUP2 CALLDATALOAD PUSH2 0x1449 DUP2 PUSH2 0x2CDC JUMP JUMPDEST PUSH1 0x0 DUP1 PUSH1 0x0 DUP1 PUSH1 0x0 PUSH1 0x80 DUP7 DUP9 SUB SLT ISZERO PUSH2 0x3061 JUMPI PUSH1 0x0 DUP1 REVERT JUMPDEST PUSH2 0x306A DUP7 PUSH2 0x2B64 JUMP JUMPDEST SWAP5 POP PUSH2 0x3078 PUSH1 0x20 DUP8 ADD PUSH2 0x2B64 JUMP JUMPDEST SWAP4 POP PUSH1 0x40 DUP7 ADD CALLDATALOAD SWAP3 POP PUSH1 0x60 DUP7 ADD CALLDATALOAD PUSH1 0x1 PUSH1 0x1 PUSH1 0x40 SHL SUB DUP2 GT ISZERO PUSH2 0x309A JUMPI PUSH1 0x0 DUP1 REVERT JUMPDEST PUSH2 0x30A6 DUP9 DUP3 DUP10 ADD PUSH2 0x2B7B JUMP JUMPDEST SWAP7 SWAP10 SWAP6 SWAP9 POP SWAP4 SWAP7 POP SWAP3 SWAP5 SWAP4 SWAP3 POP POP POP JUMP JUMPDEST PUSH1 0x0 DUP1 PUSH1 0x0 PUSH1 0x60 DUP5 DUP7 SUB SLT ISZERO PUSH2 0x30CC JUMPI PUSH1 0x0 DUP1 REVERT JUMPDEST PUSH2 0x30D5 DUP5 PUSH2 0x2B64 JUMP JUMPDEST SWAP3 POP PUSH2 0x30E3 PUSH1 0x20 DUP6 ADD PUSH2 0x2B64 JUMP JUMPDEST SWAP2 POP PUSH1 0x40 DUP5 ADD CALLDATALOAD SWAP1 POP SWAP3 POP SWAP3 POP SWAP3 JUMP JUMPDEST PUSH1 0x0 DUP1 PUSH1 0x40 DUP4 DUP6 SUB SLT ISZERO PUSH2 0x3106 JUMPI PUSH1 0x0 DUP1 REVERT JUMPDEST PUSH2 0x310F DUP4 PUSH2 0x2B64 JUMP JUMPDEST SWAP2 POP PUSH1 0x20 DUP4 ADD CALLDATALOAD PUSH2 0x2D86 DUP2 PUSH2 0x2CDC JUMP JUMPDEST PUSH1 0x0 DUP1 PUSH1 0x0 DUP1 PUSH1 0x80 DUP6 DUP8 SUB SLT ISZERO PUSH2 0x3135 JUMPI PUSH1 0x0 DUP1 REVERT JUMPDEST PUSH2 0x313E DUP6 PUSH2 0x2B64 JUMP JUMPDEST SWAP4 POP PUSH2 0x314C PUSH1 0x20 DUP7 ADD PUSH2 0x2B64 JUMP JUMPDEST SWAP3 POP PUSH1 0x40 DUP6 ADD CALLDATALOAD PUSH2 0x315C DUP2 PUSH2 0x2CDC JUMP JUMPDEST SWAP4 SWAP7 SWAP3 SWAP6 POP SWAP3 SWAP4 PUSH1 0x60 ADD CALLDATALOAD SWAP3 POP POP JUMP JUMPDEST PUSH1 0x1 DUP2 DUP2 SHR SWAP1 DUP3 AND DUP1 PUSH2 0x3180 JUMPI PUSH1 0x7F DUP3 AND SWAP2 POP JUMPDEST PUSH1 0x20 DUP3 LT DUP2 SUB PUSH2 0x31A0 JUMPI PUSH4 0x4E487B71 PUSH1 0xE0 SHL PUSH1 0x0 MSTORE PUSH1 0x22 PUSH1 0x4 MSTORE PUSH1 0x24 PUSH1 0x0 REVERT JUMPDEST POP SWAP2 SWAP1 POP JUMP JUMPDEST DUP2 DUP4 DUP3 CALLDATACOPY PUSH1 0x0 SWAP2 ADD SWAP1 DUP2 MSTORE SWAP2 SWAP1 POP JUMP JUMPDEST DUP2 DUP4 MSTORE DUP2 DUP2 PUSH1 0x20 DUP6 ADD CALLDATACOPY POP PUSH1 0x0 DUP3 DUP3 ADD PUSH1 0x20 SWAP1 DUP2 ADD SWAP2 SWAP1 SWAP2 MSTORE PUSH1 0x1F SWAP1 SWAP2 ADD PUSH1 0x1F NOT AND SWAP1 SWAP2 ADD ADD SWAP1 JUMP JUMPDEST PUSH2 0xFFFF DUP5 AND DUP2 MSTORE PUSH1 0x40 PUSH1 0x20 DUP3 ADD MSTORE PUSH1 0x0 PUSH2 0x1ED3 PUSH1 0x40 DUP4 ADD DUP5 DUP7 PUSH2 0x31B6 JUMP JUMPDEST PUSH4 0x4E487B71 PUSH1 0xE0 SHL PUSH1 0x0 MSTORE PUSH1 0x11 PUSH1 0x4 MSTORE PUSH1 0x24 PUSH1 0x0 REVERT JUMPDEST DUP1 DUP3 ADD DUP1 DUP3 GT ISZERO PUSH2 0xBA6 JUMPI PUSH2 0xBA6 PUSH2 0x31FD JUMP JUMPDEST PUSH1 0x0 PUSH1 0x20 DUP3 DUP5 SUB SLT ISZERO PUSH2 0x3238 JUMPI PUSH1 0x0 DUP1 REVERT JUMPDEST DUP2 MLOAD PUSH2 0x1449 DUP2 PUSH2 0x2CF1 JUMP JUMPDEST DUP2 DUP2 SUB DUP2 DUP2 GT ISZERO PUSH2 0xBA6 JUMPI PUSH2 0xBA6 PUSH2 0x31FD JUMP JUMPDEST PUSH1 0x0 PUSH1 0x20 DUP3 DUP5 SUB SLT ISZERO PUSH2 0x3268 JUMPI PUSH1 0x0 DUP1 REVERT JUMPDEST POP MLOAD SWAP2 SWAP1 POP JUMP JUMPDEST DUP3 DUP5 DUP3 CALLDATACOPY PUSH1 0x60 SWAP2 SWAP1 SWAP2 SHL PUSH12 0xFFFFFFFFFFFFFFFFFFFFFFFF NOT AND SWAP2 ADD SWAP1 DUP2 MSTORE PUSH1 0x14 ADD SWAP2 SWAP1 POP JUMP JUMPDEST PUSH1 0x1F DUP3 GT ISZERO PUSH2 0xDD1 JUMPI PUSH1 0x0 DUP2 DUP2 MSTORE PUSH1 0x20 DUP2 KECCAK256 PUSH1 0x1F DUP6 ADD PUSH1 0x5 SHR DUP2 ADD PUSH1 0x20 DUP7 LT ISZERO PUSH2 0x32BC JUMPI POP DUP1 JUMPDEST PUSH1 0x1F DUP6 ADD PUSH1 0x5 SHR DUP3 ADD SWAP2 POP JUMPDEST DUP2 DUP2 LT ISZERO PUSH2 0x1259 JUMPI DUP3 DUP2 SSTORE PUSH1 0x1 ADD PUSH2 0x32C8 JUMP JUMPDEST DUP2 MLOAD PUSH1 0x1 PUSH1 0x1 PUSH1 0x40 SHL SUB DUP2 GT ISZERO PUSH2 0x32F4 JUMPI PUSH2 0x32F4 PUSH2 0x2E38 JUMP JUMPDEST PUSH2 0x3308 DUP2 PUSH2 0x3302 DUP5 SLOAD PUSH2 0x316C JUMP JUMPDEST DUP5 PUSH2 0x3295 JUMP JUMPDEST PUSH1 0x20 DUP1 PUSH1 0x1F DUP4 GT PUSH1 0x1 DUP2 EQ PUSH2 0x333D JUMPI PUSH1 0x0 DUP5 ISZERO PUSH2 0x3325 JUMPI POP DUP6 DUP4 ADD MLOAD JUMPDEST PUSH1 0x0 NOT PUSH1 0x3 DUP7 SWAP1 SHL SHR NOT AND PUSH1 0x1 DUP6 SWAP1 SHL OR DUP6 SSTORE PUSH2 0x1259 JUMP JUMPDEST PUSH1 0x0 DUP6 DUP2 MSTORE PUSH1 0x20 DUP2 KECCAK256 PUSH1 0x1F NOT DUP7 AND SWAP2 JUMPDEST DUP3 DUP2 LT ISZERO PUSH2 0x336C JUMPI DUP9 DUP7 ADD MLOAD DUP3 SSTORE SWAP5 DUP5 ADD SWAP5 PUSH1 0x1 SWAP1 SWAP2 ADD SWAP1 DUP5 ADD PUSH2 0x334D JUMP JUMPDEST POP DUP6 DUP3 LT ISZERO PUSH2 0x338A JUMPI DUP8 DUP6 ADD MLOAD PUSH1 0x0 NOT PUSH1 0x3 DUP9 SWAP1 SHL PUSH1 0xF8 AND SHR NOT AND DUP2 SSTORE JUMPDEST POP POP POP POP POP PUSH1 0x1 SWAP1 DUP2 SHL ADD SWAP1 SSTORE POP JUMP JUMPDEST PUSH1 0x0 PUSH2 0xFFFF DUP1 DUP9 AND DUP4 MSTORE DUP1 DUP8 AND PUSH1 0x20 DUP5 ADD MSTORE POP DUP5 PUSH1 0x40 DUP4 ADD MSTORE PUSH1 0x80 PUSH1 0x60 DUP4 ADD MSTORE PUSH2 0x33C8 PUSH1 0x80 DUP4 ADD DUP5 DUP7 PUSH2 0x31B6 JUMP JUMPDEST SWAP8 SWAP7 POP POP POP POP POP POP POP JUMP JUMPDEST PUSH2 0xFFFF DUP7 AND DUP2 MSTORE PUSH1 0x80 PUSH1 0x20 DUP3 ADD MSTORE PUSH1 0x0 PUSH2 0x33F1 PUSH1 0x80 DUP4 ADD DUP7 DUP9 PUSH2 0x31B6 JUMP JUMPDEST PUSH1 0x1 PUSH1 0x1 PUSH1 0x40 SHL SUB SWAP5 SWAP1 SWAP5 AND PUSH1 0x40 DUP4 ADD MSTORE POP PUSH1 0x60 ADD MSTORE SWAP4 SWAP3 POP POP POP JUMP JUMPDEST PUSH1 0x1 PUSH1 0x1 PUSH1 0x40 SHL SUB DUP4 GT ISZERO PUSH2 0x3425 JUMPI PUSH2 0x3425 PUSH2 0x2E38 JUMP JUMPDEST PUSH2 0x3439 DUP4 PUSH2 0x3433 DUP4 SLOAD PUSH2 0x316C JUMP JUMPDEST DUP4 PUSH2 0x3295 JUMP JUMPDEST PUSH1 0x0 PUSH1 0x1F DUP5 GT PUSH1 0x1 DUP2 EQ PUSH2 0x346D JUMPI PUSH1 0x0 DUP6 ISZERO PUSH2 0x3455 JUMPI POP DUP4 DUP3 ADD CALLDATALOAD JUMPDEST PUSH1 0x0 NOT PUSH1 0x3 DUP8 SWAP1 SHL SHR NOT AND PUSH1 0x1 DUP7 SWAP1 SHL OR DUP4 SSTORE PUSH2 0xC2E JUMP JUMPDEST PUSH1 0x0 DUP4 DUP2 MSTORE PUSH1 0x20 SWAP1 KECCAK256 PUSH1 0x1F NOT DUP7 AND SWAP1 DUP4 JUMPDEST DUP3 DUP2 LT ISZERO PUSH2 0x349E JUMPI DUP7 DUP6 ADD CALLDATALOAD DUP3 SSTORE PUSH1 0x20 SWAP5 DUP6 ADD SWAP5 PUSH1 0x1 SWAP1 SWAP3 ADD SWAP2 ADD PUSH2 0x347E JUMP JUMPDEST POP DUP7 DUP3 LT ISZERO PUSH2 0x34BB JUMPI PUSH1 0x0 NOT PUSH1 0xF8 DUP9 PUSH1 0x3 SHL AND SHR NOT DUP5 DUP8 ADD CALLDATALOAD AND DUP2 SSTORE JUMPDEST POP POP PUSH1 0x1 DUP6 PUSH1 0x1 SHL ADD DUP4 SSTORE POP POP POP POP POP JUMP JUMPDEST PUSH1 0x0 PUSH1 0x20 DUP3 DUP5 SUB SLT ISZERO PUSH2 0x34DF JUMPI PUSH1 0x0 DUP1 REVERT JUMPDEST DUP2 MLOAD PUSH1 0x1 PUSH1 0x1 PUSH1 0x40 SHL SUB DUP2 GT ISZERO PUSH2 0x34F5 JUMPI PUSH1 0x0 DUP1 REVERT JUMPDEST DUP3 ADD PUSH1 0x1F DUP2 ADD DUP5 SGT PUSH2 0x3506 JUMPI PUSH1 0x0 DUP1 REVERT JUMPDEST DUP1 MLOAD PUSH2 0x3514 PUSH2 0x2EFD DUP3 PUSH2 0x2E7E JUMP JUMPDEST DUP2 DUP2 MSTORE DUP6 PUSH1 0x20 DUP4 DUP6 ADD ADD GT ISZERO PUSH2 0x3529 JUMPI PUSH1 0x0 DUP1 REVERT JUMPDEST PUSH2 0x1ED3 DUP3 PUSH1 0x20 DUP4 ADD PUSH1 0x20 DUP7 ADD PUSH2 0x2F45 JUMP JUMPDEST PUSH2 0xFFFF DUP6 AND DUP2 MSTORE PUSH1 0x80 PUSH1 0x20 DUP3 ADD MSTORE PUSH1 0x0 PUSH2 0x3557 PUSH1 0x80 DUP4 ADD DUP7 PUSH2 0x2F69 JUMP JUMPDEST PUSH1 0x1 PUSH1 0x1 PUSH1 0x40 SHL SUB DUP6 AND PUSH1 0x40 DUP5 ADD MSTORE DUP3 DUP2 SUB PUSH1 0x60 DUP5 ADD MSTORE PUSH2 0x33C8 DUP2 DUP6 PUSH2 0x2F69 JUMP JUMPDEST PUSH1 0x0 PUSH1 0x20 DUP3 DUP5 SUB SLT ISZERO PUSH2 0x358A JUMPI PUSH1 0x0 DUP1 REVERT JUMPDEST DUP2 MLOAD PUSH2 0x1449 DUP2 PUSH2 0x2CDC JUMP JUMPDEST PUSH1 0x0 DUP1 PUSH1 0x0 PUSH1 0x60 DUP5 DUP7 SUB SLT ISZERO PUSH2 0x35AA JUMPI PUSH1 0x0 DUP1 REVERT JUMPDEST DUP4 MLOAD PUSH2 0x35B5 DUP2 PUSH2 0x2CDC JUMP JUMPDEST PUSH1 0x20 DUP6 ADD MLOAD PUSH1 0x40 DUP7 ADD MLOAD SWAP2 SWAP5 POP SWAP3 POP PUSH2 0x2D3D DUP2 PUSH2 0x2CDC JUMP JUMPDEST PUSH2 0xFFFF DUP8 AND DUP2 MSTORE PUSH1 0xC0 PUSH1 0x20 DUP3 ADD MSTORE PUSH1 0x0 PUSH2 0x35EA PUSH1 0xC0 DUP4 ADD DUP9 PUSH2 0x2F69 JUMP JUMPDEST DUP3 DUP2 SUB PUSH1 0x40 DUP5 ADD MSTORE PUSH2 0x35FC DUP2 DUP9 PUSH2 0x2F69 JUMP JUMPDEST PUSH1 0x1 PUSH1 0x1 PUSH1 0xA0 SHL SUB DUP8 DUP2 AND PUSH1 0x60 DUP7 ADD MSTORE DUP7 AND PUSH1 0x80 DUP6 ADD MSTORE DUP4 DUP2 SUB PUSH1 0xA0 DUP6 ADD MSTORE SWAP1 POP PUSH2 0x3627 DUP2 DUP6 PUSH2 0x2F69 JUMP JUMPDEST SWAP10 SWAP9 POP POP POP POP POP POP POP POP POP JUMP JUMPDEST PUSH1 0x0 DUP3 MLOAD PUSH2 0x3646 DUP2 DUP5 PUSH1 0x20 DUP8 ADD PUSH2 0x2F45 JUMP JUMPDEST SWAP2 SWAP1 SWAP2 ADD SWAP3 SWAP2 POP POP JUMP JUMPDEST PUSH2 0xFFFF DUP7 AND DUP2 MSTORE PUSH1 0xA0 PUSH1 0x20 DUP3 ADD MSTORE PUSH1 0x0 PUSH2 0x366D PUSH1 0xA0 DUP4 ADD DUP8 PUSH2 0x2F69 JUMP JUMPDEST PUSH1 0x1 PUSH1 0x1 PUSH1 0x40 SHL SUB DUP7 AND PUSH1 0x40 DUP5 ADD MSTORE DUP3 DUP2 SUB PUSH1 0x60 DUP5 ADD MSTORE PUSH2 0x368E DUP2 DUP7 PUSH2 0x2F69 JUMP JUMPDEST SWAP1 POP DUP3 DUP2 SUB PUSH1 0x80 DUP5 ADD MSTORE PUSH2 0x36A2 DUP2 DUP6 PUSH2 0x2F69 JUMP JUMPDEST SWAP9 SWAP8 POP POP POP POP POP POP POP POP JUMP JUMPDEST PUSH32 0x416363657373436F6E74726F6C3A206163636F756E7420000000000000000000 DUP2 MSTORE PUSH1 0x0 DUP4 MLOAD PUSH2 0x36E6 DUP2 PUSH1 0x17 DUP6 ADD PUSH1 0x20 DUP9 ADD PUSH2 0x2F45 JUMP JUMPDEST PUSH17 0x1034B99036B4B9B9B4B733903937B6329 PUSH1 0x7D SHL PUSH1 0x17 SWAP2 DUP5 ADD SWAP2 DUP3 ADD MSTORE DUP4 MLOAD PUSH2 0x3717 DUP2 PUSH1 0x28 DUP5 ADD PUSH1 0x20 DUP9 ADD PUSH2 0x2F45 JUMP JUMPDEST ADD PUSH1 0x28 ADD SWAP5 SWAP4 POP POP POP POP JUMP JUMPDEST DUP1 DUP3 MUL DUP2 ISZERO DUP3 DUP3 DIV DUP5 EQ OR PUSH2 0xBA6 JUMPI PUSH2 0xBA6 PUSH2 0x31FD JUMP JUMPDEST PUSH4 0x4E487B71 PUSH1 0xE0 SHL PUSH1 0x0 MSTORE PUSH1 0x32 PUSH1 0x4 MSTORE PUSH1 0x24 PUSH1 0x0 REVERT JUMPDEST PUSH1 0x0 DUP2 PUSH2 0x375F JUMPI PUSH2 0x375F PUSH2 0x31FD JUMP JUMPDEST POP PUSH1 0x0 NOT ADD SWAP1 JUMP INVALID LOG4 SWAP9 SMOD KECCAK256 0x5C 0xE4 0xD3 SSTORE MULMOD 0x2E CREATE2 0xA8 LOG1 DUP16 JUMP 0xE8 SWAP2 EXTCODECOPY DELEGATECALL LOG2 ADD 0xFB 0xE2 DUP8 DUP3 JUMPDEST MULMOD JUMP SWAP4 0xC2 OR PUSH22 0xA26469706673582212204E28D043CB287E6759D39E59 PUSH2 0x2B51 MSTORE8 COINBASE SELFBALANCE SMOD 0xDB 0xC0 SWAP14 BLOCKHASH 0xEB BLOCKHASH MSIZE PUSH27 0x69DA9B6A6E64736F6C634300081300330000000000000000000000 "},"methodIdentifiers":{"ADMIN_ROLE()":"75b238fc","DEFAULT_ADMIN_ROLE()":"a217fddf","DEFAULT_PAYLOAD_SIZE_LIMIT()":"c4461834","SUPPORTED_TOKEN_1()":"80fbda69","SUPPORTED_TOKEN_2()":"343727d5","addLiquidity(address,uint256)":"56688700","failedMessages(uint16,bytes,uint64)":"5b8c41e6","feeManager()":"d0fb0203","forceResumeReceive(uint16,bytes)":"42d65a8d","getConfig(uint16,uint16,address,uint256)":"f5ecbdbc","getPoolBalance(address)":"d28682ea","getRoleAdmin(bytes32)":"248a9ca3","getTrustedRemoteAddress(uint16)":"9f38369a","grantRole(bytes32,address)":"2f2ff15d","hasRole(bytes32,address)":"91d14854","initiateSwap(address,uint256,uint16,address)":"a1d6fdee","isTrustedRemote(uint16,bytes)":"3d8b38f6","lzEndpoint()":"b353aaa7","lzReceive(uint16,bytes,uint64,bytes)":"001d3567","maxTransactionAmount()":"c8c8ebe4","minDstGasLookup(uint16,uint16)":"8cfd8f5c","nonblockingLzReceive(uint16,bytes,uint64,bytes)":"66ad5c8a","owner()":"8da5cb5b","paused()":"5c975abb","payloadSizeLimitLookup(uint16)":"3f1f4fa4","precrime()":"950c8a74","processIncomingSwap(address,uint256,address)":"4366b383","removeLiquidity(address,uint256)":"a201ccf6","renounceOwnership()":"715018a6","renounceRole(bytes32,address)":"36568abe","retryMessage(uint16,bytes,uint64,bytes)":"d1deba1f","revokeRole(bytes32,address)":"d547741f","setConfig(uint16,uint16,uint256,bytes)":"cbed8b9c","setMaxTransactionAmount(uint256)":"1e293c10","setMinDstGas(uint16,uint16,uint256)":"df2a5b3b","setPayloadSizeLimit(uint16,uint256)":"0df37483","setPrecrime(address)":"baf3292d","setReceiveVersion(uint16)":"10ddb137","setSendVersion(uint16)":"07e0db17","setTrustedRemote(uint16,address,bool)":"155bf609","setTrustedRemote(uint16,bytes)":"eb8d72b7","setTrustedRemoteAddress(uint16,bytes)":"a6c3d165","supportsInterface(bytes4)":"01ffc9a7","togglePause()":"c4ae3168","transferOwnership(address)":"f2fde38b","trustedRemoteAddresses(uint16,address)":"df967f44","trustedRemoteLookup(uint16)":"7533d788"}}}}}